:100000000C9473000C949B000C949B000C949B002C
:100010000C949B000C949B000C949B000C949B00F4
:100020000C949B000C949B000C949B000C949B00E4
:100030000C949B000C949B000C949B000C949B00D4
:100040000C949B000C949B000C949B000C949B00C4
:100050000C949B000C949B000C949B000C949B00B4
:100060000C949B000C949B000C94D6000C949B0069
:100070000C949B000C949B000C949B000C949B0094
:100080000C949B000C949B000C949B000C949B0084
:100090000C949B000C949B000C949B000C949B0074
:1000A0000C949B000C949B000C94AF000C949B0050
:1000B0000C949B000C949B000C949B000C949B0054
:1000C0000C949B000C949B000C949B000C949B0044
:1000D0000C949B000C949B000C949B000C949B0034
:1000E0000C949B009C0211241FBECFEFD1E2DEBF17
:1000F000CDBF12E0A0E0B2E0E6E5F5E002C0059079
:100100000D92A236B107D9F722E0A2E6B2E001C013
:100110001D92A53BB207E1F710E0C3E7D0E004C0B1
:100120002197FE010E94A302C237D107C9F70E949E
:1001300097020C94A9020C940000019779F46F3F88
:100140007F4F61F41092B1021092B2021092B3028A
:100150001092B4021092AF021092B00208951F9252
:100160000F920FB60F9211248F939F93AF93BF936B
:10017000EF93FF93E0916D02F0916E02309759F08A
:1001800080819181A281B3810196A11DB11D8083DF
:100190009183A283B383FF91EF91BF91AF919F9120
:1001A0008F910F900FBE0F901F9018951F920F9276
:1001B0000FB60F9211242F933F938F939F93EF933A
:1001C000FF9380916B0290916C02009749F1FC01C2
:1001D000E05CFF4F3081319620813217E1F0FC0165
:1001E000E20FF11D20812093C600FC01EF5BFF4F61
:1001F000208130E02F5F3F4F2F733078332334F46A
:1002000021503109206C3F6F2F5F3F4FFC01EF5BA6
:10021000FF4F208305C0E1ECF0E080818F7D80837B
:10022000FF91EF919F918F913F912F910F900FBE72
:100230000F901F90189581EB92E090936E0280933F
:100240006D028FE692E090936C0280936B02E0EA7D
:10025000F0E080818C7F8083E1EAF0E080818F7E16
:1002600080838081886080838081836080838081B7
:100270008B7F80838CE790E09093A9008093A80007
:10028000E2E7F0E08081826080831092C50083E322
:100290008093C40088E08093C10086E08093C20010
:1002A0001092AF021092B002109263021092640298
:1002B000109265021092660210926202E0E1F2E092
:1002C00040814423F1F031962091AF0230E0C90122
:1002D00001968F739078992324F40197806C9F6F17
:1002E00001965091B002581759F3D901A159BD4F49
:1002F0004C938093AF02A1ECB0E08C9180628C9320
:10030000DFCF08950F931F932FB7F8948091B10218
:100310009091B202A091B302B091B4022FBF80932A
:10032000670290936802A0936902B0936A022091D9
:100330006202283008F0F8C04091630250916402D4
:1003400060916502709166028C019D01041B150B82
:10035000260B370BB901A801403D574061057105D7
:1003600008F4E2C08093630290936402A093650254
:10037000B0936602ECE1F2E040814423F1F0319663
:100380002091AF0230E0C90101968F7390789923D4
:1003900024F40197806C9F6F01965091B00258171A
:1003A00059F3D901A159BD4F4C938093AF02A1ECF1
:1003B000B0E08C9180628C93DFCFE0916202F0E03C
:1003C000EE0FFF1FE050FE4F0190F081E02D4081C5
:1003D0004423F1F031962091AF0230E0C90101963B
:1003E0008F739078992324F40197806C9F6F019606
:1003F0005091B002581759F3D901A159BD4F4C93F0
:100400008093AF02A1ECB0E08C9180628C93DFCF3F
:10041000EAE1F2E040814423F1F031962091AF020D
:1004200030E0C90101968F739078992324F40197E5
:10043000806C9F6F01965091B002581759F3D90103
:10044000A159BD4F4C938093AF02A1ECB0E08C91C9
:1004500080628C93DFCFEFE1F2E040814423F1F042
:1004600031962091AF0230E0C90101968F739078E8
:10047000992324F40197806C9F6F01965091B002EC
:10048000581759F3D901A159BD4F4C938093AF022E
:10049000A1ECB0E08C9180628C93DFCFE09162029E
:1004A000F0E0E65AFD4F808140E3480F2091AF0213
:1004B00030E0C90101968F739078992324F4019755
:1004C000806C9F6F01965091B002581759F0F90156
:1004D000E159FD4F40838093AF02E1ECF0E0808171
:1004E000806280832091AF0230E0C90101968F7352
:1004F0009078992324F40197806C9F6F0196409126
:10050000B002481761F0F901E159FD4F9AE090837C
:100510008093AF02E1ECF0E0808180628083809183
:1005200062028F5F809362021F910F9108950E9473
:100530001B010E948201FDCF6FEF7FEF81E090E011
:100540000E949D000895EE0FFF1F0590F491E02D8D
:060550000994F894FFCFAE
:1005560022022902300237023E0245024C025302B1
:1005660053544152545F47414D450A00423A0050A8
:100576003A003130313031300031313031303000F5
:1005860031313131313100303030303030003130BE
:1005960030303031003031303130310030303131AF
:1005A60031300031313130303000030306000203B0
:0205B60003033D
:00000001FF
