S01C00006D6F746F725F7377697463685F636C61737365732E7372656399
S11300000C9473000C9490000C9490000C945D027A
S11300100C9490000C9490000C9490000C9490001C
S11300200C9490000C9490000C9490000C947D021D
S11300300C9490000C9490000C9490000C949000FC
S11300400C9490000C9490000C9490000C949000EC
S11300500C9490000C9490000C9490000C949000DC
S11300600C9490000C9490000C9490000C949000CC
S11300700C9490000C9490000C9490000C949000BC
S11300800C9490000C9490000C9490000C949000AC
S11300900C9490000C9490000C9490000C9490009C
S11300A00C9490000C9490000C9490000C9490008C
S11300B00C9490000C9490000C9490000C9490007C
S11300C00C9490000C9490000C9490000C9490006C
S11300D00C9490000C9490000C9490000C9490005C
S11300E00C949000920411241FBECFEFD1E2DEBF26
S11300F0CDBF22E0A0E0B2E001C01D92AC33B20754
S1130100E1F710E0C3E7D0E004C02197FE010E94AC
S11301109904C237D107C9F70E94C9020C949F04FD
S11301200C940000CF93DF93019709F06EC06F3FEA
S11301307F4F09F06AC0C2E3D2E089E290E099837C
S113014088832BE230E03B832A838AE290E09D831C
S11301508C8344E04E831F8218861986A8E2B2E09D
S113016046E051E011965C934E9348E051E01396BB
S11301705C934E93129747E051E015965C934E932F
S1130180149740E416964C93169717961C9217975B
S113019018961C92189719961C921997E6E1F2E0AA
S11301A0318320839383828380E184832BE031E055
S11301B0368325832AE031E03087278398E09187CE
S11301C028E231E033872287D587C48716861786CD
S11301D0118A108AE4E0F2E045E250E05183408362
S11301E024E230E03383228391E094835683458371
S11301F030872783818783EB90E093878287B58755
S1130200A48716861786118A108ADF91CF910895E4
S1130210FC01A281B3819C918481892B8C93A78159
S1130220B0859C918185892B8C93A081B1819C910F
S11302308481809589238C93A581B6819C91818545
S1130240809589238C930284F385E02D1082089590
S1130250CF93DF93FC01262FA485B5851097E1F099
S113026017968C911797662319F0813009F448C0CA
S1130270211103C0823009F443C0811181E0179633
S11302801C92179718961C92A485B58519962C93E1
S1130290199718961C9201C080E0222339F0A0819E
S11302A0B1813C919481932B9C9307C0A081B1812F
S11302B03C919481909593239C93A285B3859CEC67
S11302C09C9391E0968781110EC0A485B585109703
S11302D061F0CD91DC911197988116968C918923C8
S11302E031F080E005C081E003C080E001C081E01E
S11302F0882329F081E08787118A108A01C0178634
S11303008685882321F0A285B38589E98C9340E012
S113031059E06DE370E08685882339F04115510575
S11303206105710519F480E001C080E0882309F4B7
S113033042C0A485B5851097C9F186858823B1F19B
S113034087858823F9F0CD91DC91119798811696D1
S11303508C911697892399F0808991890196918BC4
S1130360808B81329E4410F11786118A108A189668
S11303708C9118978823D1F018961C9217C0118A73
S1130380108A14C018968C911897882311F0189627
S11303901C92882359F0A285B3851C92A581B6814D
S11303A09C918185809589238C93168641505109AF
S11303B061097109B0CFA285B3851C92A581B6816C
S11303C09C918185809589238C9316868FEF91EE7D
S11303D034E0815090403040E1F700C000000484D4
S11303E0F585E02D309749F0222321F081E08783C1
S11303F0108603C082E087831086DF91CF91089531
S1130400CF93DF93FC01A485B5851097F9F0179677
S11304108C911797662319F0813009F44BC0611150
S113042003C0823009F446C0811102C090E001C0CB
S113043091E017961C92179718961C92A485B5857F
S113044019966C93199718961C9201C090E0662334
S113045039F0A081B1818C912481822B8C9307C0C7
S1130460A081B1812C918481809582238C93A28573
S1130470B3858CEC8C9381E0868791110EC0A485A2
S1130480B585109761F0CD91DC91119798811696FE
S11304908C91892331F080E005C081E003C080E0C5
S11304A001C081E0882329F081E08787118A108ABE
S11304B001C01786DF91CF9108951F920F920FB656
S11304C00F9211248F93EF93FF93E0910202F09126
S11304D00302309751F08185882319F081E08783E6
S11304E002C082E0878381E08087FF91EF918F9142
S11304F00F900FBE0F901F9018951F920F920FB67A
S11305000F9211248F93EF93FF93E0910002F091E7
S11305100102309751F08185882319F081E08783A7
S113052002C082E0878381E08087FF91EF918F9101
S11305300F900FBE0F901F9018958AB180688AB9EA
S11305408BB18F778BB90895E9E6F0E08081806202
S1130550808380818F7E80838DB384608DBB08957A
S1130560E8E6F0E0808184608083EDE6F0E080815D
S113057080648083089582E8809320018BE08093D7
S11305802101089583E88093B00084E08093B10052
S11305900895F89402E312E0109303020093020218
S11305A0C8E2D2E0D0930102C09300020E949D02EF
S11305B00E94B0020E94A4020E94C2020E94BB02D6
S11305C0D8011496ED91FC911597808116969C9113
S11305D016979095892380831296ED91FC91139739
S11305E0908116968C91892B808386E192E00E94FB
S11305F00801EC81FD8180819E819095892380830F
S1130600EA81FB8190818E81892B808384E092E052
S11306100E940801789480E090E083309105D4F43E
S11306202BB120682BB9BFE729EA33E0B150204051
S11306303040E1F700C000002BB12F772BB94FE712
S1130640A9EAB3E04150A040B040E1F700C0000087
S11306500196E3CF60E086E192E00E94280160E029
S113066084E092E00E9428012FEF30E742E021501D
S113067030404040E1F700C0000061E086E192E0D4
S11306800E94000280912402882309F446C0E0916C
S11306902202F09123023097A9F3882399F38091E1
S11306A02502882339F1A081B1819C918681892317
S11306B0E1F0A6E1B2E050968D919C91519701969C
S11306C051969C938E93509781329E44D8F2A6E122
S11306D0B2E01F961C921F9751961C921E9250973F
S11306E08085882379F21086CDCF1092270210924C
S11306F02602C8CF808581111086882319F2E6E18D
S1130700F2E0A285B3851C92A581B6818C91918576
S1130710909589238C931686B5CF60E086E192E0AC
S11307200E94000280912402882309F446C0E091CB
S11307302202F09123023097A9F3882399F3809140
S11307402502882339F1A081B1819C918681892376
S1130750E1F0A6E1B2E050968D919C9151970196FB
S113076051969C938E93509781329E44D8F2A6E181
S1130770B2E01F961C921F9751961C921E9250979E
S11307808085882379F21086CDCF109227021092AB
S11307902602C8CF808581111086882319F2E6E1EC
S11307A0F2E0A285B3851C92A581B6818C919185D6
S11307B0909589238C931686B5CF61E084E092E00E
S11307C00E94000280911202882309F444C0E0913F
S11307D01002F09111023097A9F3882399F38091C4
S11307E01302882329F1A081B1819C9186818923F8
S11307F0D1F0A4E0B2E050968D919C91519701966E
S113080051969C938E93509781329E44D8F21F96B2
S11308101C921F9751961C921E9250978085882394
S113082089F21086CFCF1092150210921402CACF0B
S1130830808581111086882329F2E4E0F2E0A28504
S1130840B3851C92A581B6818C919185909589235D
S11308508C931686B7CF60E084E092E00E94000299
S113086080911202882309F444C0E0911002F091AF
S113087011023097A9F3882399F3809113028823F6
S113088029F1A081B1819C9186818923D1F0A4E0D2
S1130890B2E050968D919C915197019651969C93FC
S11308A08E93509781329E44D8F21F961C921F97C4
S11308B051961C921E9250978085882389F2108647
S11308C0CFCF1092150210921402CACF80858111E5
S11308D01086882329F2E4E0F2E0A285B3851C9215
S11308E0A581B6818C919185909589238C931686E8
S11308F0B7CF8BB180688BB94FE789EA93E0415059
S113090080409040E1F700C000008BB18F778BB935
S1130910AFE7B9EA23E0A150B0402040E1F700C0BE
S11309200000E7CF6FEF7FEF81E090E00E9492003C
S11309300895EE0FFF1F0590F491E02D0994F894AB
S1050940FFCFE3
S9030000FC
