:100000000C9473000C9490000C9490000C9490004D
:100010000C9490000C9490000C9490000C94900020
:100020000C9490000C9490000C9490000C94900010
:100030000C9490000C9490000C9490000C94900000
:100040000C9490000C9490000C9490000C949000F0
:100050000C9490000C9490000C9490000C949000E0
:100060000C9490000C9490000C9490000C949000D0
:100070000C9490000C9490000C9490000C949000C0
:100080000C9490000C9490000C9490000C949000B0
:100090000C9490000C9490000C9490000C949000A0
:1000A0000C9490000C9490000C941B010C94900004
:1000B0000C9490000C9490000C9490000C94900080
:1000C0000C9490000C9490000C9490000C94900070
:1000D0000C9490000C9490000C9490000C94900060
:1000E0000C949000350311241FBECFEFD1E2DEBF88
:1000F000CDBF22E0A0E0B2E001C01D92AB34B20758
:10010000E1F710E0C3E7D0E004C02197FE010E94B0
:100110003C03C237D107C9F70E9442010C94420345
:100120000C940000019709F085C06F3F7F4F09F0E4
:1001300081C0109247021092480210924902109218
:100140004A02E3E3F2E082E390E0A0E0B0E08387DC
:100150009487A587B68789E290E0918380838BE2BC
:1001600090E0938382838AE290E09583848388E0A1
:10017000868317821086118612861786108A118A46
:10018000AFE1B2E044E150E060E070E050964D93A2
:100190005D936D937C93539786E091E011969C93C9
:1001A0008E9388E091E013969C938E93129787E04C
:1001B00091E015969C938E93149780E416968C93F9
:1001C000169717961C92179718961C9218971996BF
:1001D0001C9219971A961D921D921D921C921D97A2
:1001E0001E961C921E971F961C921F97E0E0F2E04D
:1001F00044E650E060E070E0448B558B668B778B73
:1002000025E230E03183208384E290E0938382838F
:1002100041E04483368325839087878380E181870B
:1002200083EB90E093878287B587A487168617862D
:10023000108E118E08951F920F920FB60F921124F7
:100240008F939F93AF93BF93EF93FF93E0914502FA
:10025000F0914602309759F080819181A281B3815B
:100260000196A11DB11D80839183A283B383FF9169
:10027000EF91BF91AF919F918F910F900FBE0F9013
:100280001F90189587E492E0909346028093450270
:10029000F894E1EAF0E080818C7E80838081886040
:1002A000808380818360808380818B7F80838CE7E3
:1002B00090E09093A9008093A800E2E7F0E08081AD
:1002C00082608083E3E3F2E0A481B5818C91968122
:1002D000909589238C93A281B3819C918681892BEF
:1002E0008C93EFE1F2E0A481B5818C919681909599
:1002F00089238C93A281B3819C918681892B8C93D5
:10030000E0E0F2E0A281B3819C918481892B8C93FF
:10031000A781B0859C918185892B8C93A081B18127
:100320008C919481909589238C93A581B6818C9131
:100330009185909589238C930284F385E02D10821A
:1003400078942FB7F8948091470290914802A09139
:100350004902B0914A022FBF7894E3E3F2E0C081F2
:10036000D18138812681322321E009F020E03091CB
:100370004202231741F080933A0290933B02A093EC
:100380003C02B0933D02E3E3F2E047815085618592
:1003900072856C017D01C41AD50AE60AF70A438505
:1003A0005485658576854C155D056E057F0558F489
:1003B00030914302231739F020934302222319F08E
:1003C00031E03093440220934202EFE1F2E0C08139
:1003D000D18138812681322321E009F020E030915B
:1003E0002D02231741F08093290290932A02A093B3
:1003F0002B02B0932C02EFE1F2E042855385648535
:1004000075856C017D01C41AD50AE60AF70A408990
:100410005189628973894C155D056E057F05A0F4CD
:1004200030912E02231781F020932E02222361F0B7
:1004300031E030873185332321F031E030932602DB
:1004400003C032E03093260220932D02209119023E
:10045000222349F140911A0250911B0260911C0223
:1004600070911D028C019D01041B150B260B370B8F
:10047000083C11052105310508F496C0E0E0F2E0E2
:10048000118E0484F585E02D309709F48DC02091FC
:100490001E02222321F021E02783108685C022E05E
:1004A0002783108681C0E0910C02F0910D023097F5
:1004B00009F47AC020910E02222309F475C020911C
:1004C0000F02222369F1C081D18138812681232343
:1004D000F1F0C0E0D2E0488959896A897B896C01D2
:1004E0007D01C41AD50AE60AF70A4C895D896E892E
:1004F0007F894C155D056E057F0508F055C010928B
:100500000F022085222309F44FC010864DC080932E
:10051000100290931102A0931202B093130244C0F0
:100520002085211110862223C1F0E0E0F2E0C2858F
:10053000D3851882C581D6813881218520952323D2
:1005400028831686208D222379F1108E21E0218FB9
:10055000828F938FA48FB58F27C0209118022223FA
:1005600019F140911A0250911B0260911C02709186
:100570001D028C019D01041B150B260B370BB901C5
:10058000A801413157426105710570F0E0E0F2E0E9
:10059000C285D3851882C581D68138812185209571
:1005A000232328831686108E209144022111109255
:1005B0004402222309F4C5CE30910E02311147C006
:1005C000E0910C02F0910D02309791F0478142309A
:1005D00009F4B7CE411102C060E001C061E01782AA
:1005E0001086E0910C02F0910D021186108601C078
:1005F00060E0E0E0F2E0C081D18158814481409523
:1006000045234883C285D3854CEC488341E0468727
:1006100061110FC0E0910C02F0910D02309741F092
:10062000C081D18158814681452319F0232F01C013
:10063000232F222349F0E0E0F2E021E02787808B9E
:10064000918BA28BB38B7DCE10920F027ACEE0E01D
:10065000F2E0A285B3851C92A581B6819C9181852B
:10066000809589238C9316866CCE6FEF7FEF81E0A7
:1006700090E00E9492000895EE0FFF1F0590F49104
:08068000E02D0994F894FFCF6E
:00000001FF
