:100000000C9473000C9490000C9490000C9490004D
:100010000C94B3000C9490000C9490000C949000FD
:100020000C9490000C9490000C9490000C94900010
:100030000C9490000C9490000C9490000C94900000
:100040000C9490000C9490000C9490000C949000F0
:100050000C9490000C9490000C9490000C949000E0
:100060000C9490000C9490000C9490000C949000D0
:100070000C9490000C9490000C9490000C949000C0
:100080000C9490000C9490000C9490000C949000B0
:100090000C9490000C9490000C9490000C949000A0
:1000A0000C9490000C9490000C9490000C94900090
:1000B0000C9490000C9490000C9490000C94900080
:1000C0000C9490000C9490000C9490000C94900070
:1000D0000C9490000C9490000C9490000C94900060
:1000E0000C9490001D0111241FBECFEFD1E2DEBFA2
:1000F000CDBF22E0A0E0B2E001C01D92A131B20765
:10010000E1F710E0C3E7D0E004C02197FE010E94B0
:100110002401C237D107C9F70E94DF000C942A01DD
:100120000C9400000197F1F46F3F7F4FD9F4ECE09D
:10013000F2E02BE230E0318320838AE290E0938387
:10014000828340E84483E2E0F2E049E250E05183F8
:100150004083338322839583848388E08683178258
:100160001086118608951F920F920FB60F921124D8
:100170008F93EF93FF93E0910002F091010230978B
:1001800051F08185882319F081E0878302C082E0E5
:10019000878381E08087FF91EF918F910F900FBE51
:1001A0000F901F901895E9E6F0E0808180688083C9
:1001B00080818F7B80838DB388608DBB0895E2E062
:1001C000F2E0F0930102E0930002F894ACE0B2E0B8
:1001D0001296CD91DC911397988114968C91149777
:1001E000892B8883CD91DC911197888114969C91FD
:1001F000909589238883A481B5818C91968190956F
:1002000089238C93A281B3819C918681892B8C93C5
:100210000E94D300789480910A02811110920A0200
:100220008823C9F3ACE0B2E0ED91FC911197908185
:1002300014968C9189278083EECF6FEF7FEF81E05A
:1002400090E00E9492000895EE0FFF1F0590F49138
:08025000E02D0994F894FFCFA2
:00000001FF
