S013000074696D65725F636C6173732E737265637B
S11300000C9473000C949B000C949B000C949B0028
S11300100C949B000C949B000C949B000C949B00F0
S11300200C949B000C949B000C949B000C949B00E0
S11300300C949B000C949B000C949B000C949B00D0
S11300400C949B000C949B000C949B000C949B00C0
S11300500C949B000C949B000C949B000C949B00B0
S11300600C949B000C949B000C949B000C949B00A0
S11300700C949B000C949B000C949B000C949B0090
S11300800C949B000C949B000C949B000C949B0080
S11300900C949B000C949B000C949B000C949B0070
S11300A00C949B000C949B000C9410010C949B00EA
S11300B00C949B000C949B000C949B000C949B0050
S11300C00C949B000C949B000C949B000C949B0040
S11300D00C949B000C949B000C949B000C949B0030
S11300E00C949B00B20211241FBECFEFD1E2DEBFFD
S11300F0CDBF12E0A0E0B2E0E2E8F5E002C0059076
S11301000D92AE32B107D9F722E0AEE2B2E001C0FF
S11301101D92AD37B207E1F710E0C3E7D0E004C0A9
S11301202197FE010E94B902C237D107C9F70E9484
S113013037010C94BF020C940000019709F06FC0C2
S11301406F3F7F4F09F06BC08AE0E3E2F2E0ABE679
S1130150B2E001900D928A95E1F785E090E0A0E08D
S1130160B0E08093790290937A02A0937B02B093DB
S11301707C0240E0473030F5842F90E09C01220F50
S1130180331FF901EB5EFD4F60817181F901EF5B73
S1130190FD4F71836083F901E95FFD4F2081318157
S11301A0FC013796EE0FFF1FEF5BFD4F3183208379
S11301B0FC01E050FE4F2081FC01EF5BFD4F248FDA
S11301C04F5FD8CFE1E4F2E08BE091E094A383A306
S11301D08AE091E096A385A380E887A310A611A6E0
S11301E0E4E3F2E02BE230E0318320832AE230E0E2
S11301F0338322838483158216821782108684E6D1
S113020090E0A0E0B0E081879287A387B487109242
S11302103002109231021092320210923302089589
S11302201F920F920FB60F9211248F939F93AF9347
S1130230BF93EF93FF93E0912E02F0912F0230973A
S113024059F080819181A281B3810196A11DB11DD4
S113025080839183A283B383FF91EF91BF91AF9188
S11302609F918F910F900FBE0F901F90189580E370
S113027092E090932F0280932E02F89420E027308E
S113028020F5822F90E0FC013796EE0FFF1FEF5B05
S1130290FD4F0190F081E02D4081DC01AF5BBD4F4B
S11302A05C963C915C97342B3083880F991FFC013A
S11302B0EF5BFD4F0190F081E02D80815C969C9175
S11302C09095892380832F5FDACFA1E4B2E09596DD
S11302D0ED91FC919697908197968C919797892BA5
S11302E080839396ED91FC919497808197969C914D
S11302F09797909589238083E4E3F2E0C281D381C8
S113030098818481892B8883C081D181888194815B
S1130310909589238883E1EAF0E080818C7E808354
S113032080818860808380818360808380818B7FEB
S113033080838CE790E09093A9008093A800E2E783
S1130340F0E0808182608083789483E498968C9333
S11303508FB7F8944091300250913102609132028B
S1130360709133028FBF7894E1E4F2E084A995A9F7
S1130370A6A9B7A98A019B01081B190B2A0B3B0BE1
S113038080AD91ADA2ADB3AD081719072A073B079D
S113039008F4C7C020E02730A8F4822F90E0FC01C5
S11303A0EE0FFF1FEF5BFD4F0190F081E02D3081D8
S11303B0DC01AF5BBD4F5C968C9180958323808379
S11303C02F5FE9CF80916A02882309F44DC0A1E42C
S11303D0B2E098968C919897EDEC8E9FE12D1124C4
S11303E0E695E695E6959396CD91DC919497988160
S11303F097968C91892B8883EA3008F088C0F0E0C6
S1130400EF5BFD4F12A580E0873008F080C0282FF5
S113041030E0E12FF0E0082E02C0F595E7950A944C
S1130420E2F7E0FF10C0F901EE0FFF1FEF5BFD4F95
S11304300190F081E02DA081E901CF5BDD4F9C8D1F
S11304409A2B90830FC0F901EE0FFF1FEF5BFD4F56
S1130450A081B181EC91E901CF5BDD4F9C8D90953A
S11304609E239C938F5FD0CFA1E4B2E098969C9199
S11304709897EDEC9E9FE12D1124E695E695E6957F
S1130480EE0F8E2F880F880FE80F9E1BE92F93968F
S1130490CD91DC919497988197968C91809589233E
S11304A08883EA30A0F5F0E0EF5BFD4F12A580E011
S11304B0873068F5282F30E0E12FF0E0082E02C0E5
S11304C0F595E7950A94E2F7E0FF10C0F901EE0F05
S11304D0FF1FEF5BFD4F0190F081E02DA081E9014A
S11304E0CF5BDD4F9C8D9A2B90830FC0F901EE0FEB
S11304F0FF1FEF5BFD4FA081B181EC91E901CF5B60
S1130500DD4F9C8D90959E239C938F5FD1CFE1E42A
S1130510F2E091A581E0892781A744AB55AB66AB96
S113052077ABE4E3F2E085819681A781B0858A0107
S11305309B01081B190B2A0B3B0B81859285A38514
S1130540B485081719072A073B0708F401CFA081CF
S1130550B1819C91848189278C93458356836783D9
S11305607087F6CE6FEF7FEF81E090E00E949D00F0
S11305700895EE0FFF1F0590F491E02D0994F8946F
S1050580FFCFA7
S1130582010204401020400A010A010A012A000A59
S1130592010A010A010B010B010B012B000B010BD8
S11105A2010B013F065B4F666D7D077F6F0006
S9030000FC
