S0180000636C61737365735F636F6D62696E65642E737265637E
S11300000C9473000C949B000C949B000C949B0028
S11300100C949B000C949B000C949B000C949B00F0
S11300200C949B000C949B000C949B000C94B701C3
S11300300C949B000C949B000C949B000C949B00D0
S11300400C949B000C949B000C949B000C949B00C0
S11300500C949B000C949B000C949B000C949B00B0
S11300600C949B000C949B000C949B000C949B00A0
S11300700C949B000C949B000C949B000C949B0090
S11300800C949B000C949B000C949B000C949B0080
S11300900C949B000C949B000C949B000C949B0070
S11300A00C949B000C949B000C9492010C949B0068
S11300B00C949B000C949B000C949B000C949B0050
S11300C00C949B000C949B000C949B000C949B0040
S11300D00C949B000C949B000C949B000C949B0030
S11300E00C949B009E0611241FBECFEFD1E2DEBF0D
S11300F0CDBF12E0A0E0B2E0EAE5FDE002C0059069
S11301000D92A233B107D9F722E0A2E3B2E001C015
S11301101D92AA3CB207E1F710E0C3E7D0E004C0A7
S11301202197FE010E94A506C237D107C9F70E9494
S113013099060C94AB060C940000FF920F931F9346
S1130140CF93DF93019709F0E7C06F3F7F4F09F02A
S1130150E3C01092C6021092C7021092C802109215
S1130160C902E0ECF2E08FE380831182EEEAF2E070
S113017082E390E0A0E0B0E083879487A587B68708
S113018089E290E0918380832BE230E03383228301
S11301908AE290E09583848348E046831782108640
S11301A0118612861786108A118AAAE9B2E044E100
S11301B050E060E070E050964D935D936D937C93B6
S11301C0539746E051E011965C934E9348E051E01A
S11301D013965C934E93129747E051E015965C9307
S11301E04E93149740E416964C93169717961C92C8
S11301F0179718961C92189719961C9219971A9685
S11302001D921D921D921C921D971E961C921E9764
S11302101F961C921F97EBE7F2E044E650E060E083
S113022070E0448B558B668B778B05E210E011836D
S11302300083C4E2D0E0D383C283FF24F394F48226
S113024016830583D087C783C0E1C187C3EBD0E0A1
S1130250D387C287B587A48716861786108E118E1A
S1130260EEE6F2E0318320839383828380E8848303
S11302701582168217821086418752876387748796
S11302808AE0E8E2F2E0ACE5B2E001900D928A95F2
S1130290E1F785E090E0A0E0B0E080936A029093FB
S11302A06B02A0936C02B0936D0240E0473030F5CE
S11302B0842F90E09C01220F331FF901EA5EFD4F69
S11302C060817181F901EE5CFD4F71836083F901F6
S11302D0E85FFD4F20813181FC013796EE0FFF1F4F
S11302E0EE5CFD4F31832083FC01EF5FFD4F2081E5
S11302F0FC01EE5CFD4F248F4F5FD8CFE2E3F2E0C8
S11303008BE091E094A383A38AE091E096A385A374
S113031080E887A310A611A6DF91CF911F910F91BA
S1130320FF9008951F920F920FB60F9211248F938E
S11303309F93AF93BF93EF93FF93E0912602F091C5
S1130340270280819181A281B3810196A11DB11DF3
S113035080839183A283B383FF91EF91BF91AF9187
S11303609F918F910F900FBE0F901F9018951F9221
S11303700F920FB60F9211242F933F934F935F93D5
S11303808F939F93EF93FF93E0912402F0912502C2
S1130390509106015F7380E090E0863091052CF562
S11303A0252F30E0082E02C0359527950A94E2F7F0
S11303B020FD19C04081242F30E0082E02C035955D
S11303C027950A94E2F720FF0EC021812F5F218335
S11303D021E030E0082E02C0220F331F0A94E2F716
S11303E02095422340830196D8CFFF91EF919F91AE
S11303F08F915F914F913F912F910F900FBE0F906E
S11304001F901895E0EBF0E0808183688083808101
S11304108F7B8083E1EBF0E0808184608083808146
S11304208C7F80830895F894E1EAF0E080818C7EEB
S113043080838081886080838081836080838081E1
S11304408B7F80838CE790E09093A9008093A80031
S1130450E2E7F0E0808182608083E7E0F1E0808180
S1130460807C8083E8E0F1E080818F638083E8E62C
S1130470F0E0808184608083EDE6F0E080818F632A
S11304808083EEEAF2E0A481B5819C918681809517
S113049089238C93A281B3819C918681892B8C932F
S11304A0EAE9F2E0A481B5819C9186818095892353
S11304B08C93A281B3819C918681892B8C93EBE7E9
S11304C0F2E0A281B3819C918481892B8C93A781D2
S11304D0B0859C918185892B8C93A081B1819C915D
S11304E08481809589238C93A581B6819C91818593
S11304F0809589238C930284F385E02D108220E07B
S1130500273020F5822F90E0FC013796EE0FFF1F75
S1130510EE5CFD4F0190F081E02D4081DC01AE5C8A
S1130520BD4F5C963C915C97342B3083880F991FA8
S1130530FC01EE5CFD4F0190F081E02D90815C9612
S11305408C918095892380832F5FDACFE2E3F2E0F8
S1130550A5A1B6A19C9187A1892B8C93A3A1B4A139
S11305609C9187A1809589238C93EEE6F2E0A28189
S1130570B3819C918481892B8C93A081B1819C91BE
S11305808481809589238C930E9402027894089533
S11305908F929F92AF92BF92CF92DF92EF92FF928F
S11305A00F931F93CF93DF936B017C01EEEAF2E08C
S11305B0A081B1819C918681982381E009F080E03B
S11305C09091BD02891741F0C092B502D092B60253
S11305D0E092B702F092B802EEEAF2E007811085E9
S11305E02185328546015701801A910AA20AB30A6D
S11305F00385148525853685081519052A053B05C7
S113060058F49091BE02891739F08093BE02882372
S113061019F091E09093BF028093BD02EAE9F2E001
S1130620A081B1819C918681982381E009F080E0CA
S11306309091A802891741F0C092A402D092A50219
S1130640E092A602F092A702EAE9F2E0028513859D
S11306502485358546015701801A910AA20AB30AF6
S11306600089118922893389081519052A053B0552
S1130670A0F49091A902891781F08093A90288239C
S113068061F091E090879185992321F091E0909316
S1130690A10203C092E09093A1028093A8028091EA
S11306A09402882349F18091950290919602A09139
S11306B09702B091980297018601081B190B2A0B27
S11306C03B0B083C11052105310508F49CC0EBE700
S11306D0F2E0118E0484F585E02D309709F493C07F
S11306E080919902882321F081E0878310868BC052
S11306F082E08783108687C0E0918702F0918802A8
S1130700309709F480C080918902882309F47BC062
S113071080918A02882399F1A081B1819C9186817C
S1130720892321F1ABE7B2E050960D911D912D91F3
S11307303C915397C701B601601B710B820B930B5D
S11307408B019C0154968D919D910D90BC91A02D8F
S113075080179107A207B30708F055C010928A02C8
S11307608085882309F44FC010864DC0C0928B0247
S1130770D0928C02E0928D02F0928E0244C0808569
S1130780811110868823C1F0EBE7F2E0A285B385DE
S11307901C92A581B6819C918185809589238C9337
S11307A01686808D882379F1108E81E0818FC28E28
S11307B0D38EE48EF58E27C080919302882319F19D
S11307C08091950290919602A0919702B09198021F
S11307D097018601081B190B2A0B3B0BD901C80191
S11307E081319742A105B10570F0EBE7F2E0A285F3
S11307F0B3851C92A581B6819C91818580958923BE
S11308008C931686108EE2E3F2E084A995A9A6A93A
S1130810B7A997018601081B190B2A0B3B0B80AD66
S113082091ADA2ADB3AD081719072A073B0708F429
S1130830C9C020E02730A8F4822F90E0FC01EE0F1D
S1130840FF1FEE5CFD4F0190F081E02D3081DC0153
S1130850AE5CBD4F5C968C918095832380832F5F23
S1130860E9CF80915B02882309F44EC0A2E3B2E091
S113087098968C919897EDEC8E9FE12D1124E69536
S1130880E695E6959396CD91DC9194979881979609
S11308908C91892B8883EA3008F08AC0F0E0EE5C02
S11308A0FD4FA2A580E0873008F082C0282F30E0F9
S11308B06A2F70E0082E02C0759567950A94E2F7D6
S11308C060FF10C0F901EE0FFF1FEE5CFD4F0190B9
S11308D0F081E02D5081E901CE5CDD4F9C8D952B9C
S11308E0908310C0F901EE0FFF1FEE5CFD4F0190E5
S11308F0F081E02D5081E901CE5CDD4F9C8D909517
S1130900952390838F5FCFCFA2E3B2E098969C911A
S11309109897EDEC9E9FE12D1124E695E695E695DA
S1130920EE0F8E2F880F880FE80F9E1BE92F9396EA
S1130930CD91DC919497988197968C918095892399
S11309408883EA30A8F5F0E0EE5CFD4FA2A580E0D4
S1130950873070F5282F30E06A2F70E0082E02C02F
S1130960759567950A94E2F760FF10C0F901EE0FE0
S1130970FF1FEE5CFD4F0190F081E02D5081E901F5
S1130980CE5CDD4F9C8D952B908310C0F901EE0F4A
S1130990FF1FEE5CFD4F0190F081E02D5081E901D5
S11309A0CE5CDD4F9C8D9095952390838F5FD0CF47
S11309B0E2E3F2E091A581E0892781A7C4AAD5AA40
S11309C0E6AAF7AA4230F9F4EEE6F2E085819681D0
S11309D0A781B085B701A601481B590B6A0B7B0B95
S11309E081859285A385B485481759076A077B07D3
S11309F050F0A081B1819C91848189278C93C58218
S1130A00D682E782F086DF91CF911F910F91FF90FC
S1130A10EF90DF90CF90BF90AF909F908F9008950C
S1130A200E9413028FB7F8944091C6025091C702F6
S1130A306091C8027091C9028FBFE0918702F09162
S1130A408802309799F08781813009F440C0811180
S1130A5002C090E001C091E017821086E091870205
S1130A60F091880281E08187108601C090E0EBE775
S1130A70F2E0A081B1812C918481822B8C93A28598
S1130A80B3858CEC8C9381E0868791110EC0E09144
S1130A908702F0918802309751F0A081B1819C9136
S1130AA08681892331F080E005C081E003C080E0C5
S1130AB001C081E0882349F0EBE7F2E081E0878719
S1130AC0408B518B628B738B02C010928A0280918F
S1130AD08902882331F0E0918502F091860289E948
S1130AE08083EBE7F2E081E0808F118E868F428F66
S1130AF0538F648F758F1092C2021092C3021092AA
S1130B00C4021092C502109200020895CF92DF929F
S1130B10EF92FF928FB7F894C090C602D090C702AC
S1130B20E090C802F090C9028FBF40910002C70153
S1130B30B6010E94C80280910002813079F030F041
S1130B408230F9F0833009F47EC0EEC080918902CE
S1130B508111EAC081E080930002E6C08091BF0267
S1130B6081111092BF02882309F4DEC0E0ECF2E0A8
S1130B708FE38083118210925A0282E080930002F4
S1130B80D3C08091C102843610F4982F01C093E63B
S1130B9090935A02863008F4C7C083E08093000221
S1130BA0C092C202D092C302E092C402F092C50283
S1130BB0E0918702F0918802309791F0878182302A
S1130BC009F4B2C0811102C020E001C021E0178203
S1130BD01086E0918702F09188021186108601C088
S1130BE020E0EBE7F2E0A081B1819C9184818095C3
S1130BF089238C93A285B3858CEC8C9381E08687C2
S1130C0021110EC0E0918702F0918802309751F0D3
S1130C10A081B1819C918681892331F080E005C057
S1130C2081E003C080E001C081E0882349F0EBE764
S1130C30F2E081E08787C08AD18AE28AF38A74C0AD
S1130C4010928A0271C080918902811117C080912B
S1130C50C2029091C302A091C402B091C502A7013F
S1130C609601281B390B4A0B5B0BDA01C901813D44
S1130C709740A105B10520F480E003C080E001C0E5
S1130C8081E0882309F450C09091A102923009F0C8
S1130C9045C0E0918702F0918802309791F09781E6
S1130CA09130E1F1911102C030E001C031E01782CE
S1130CB01086E0918702F091880291E09187108676
S1130CC001C030E0EBE7F2E0A081B1812C91948186
S1130CD0922B9C93A285B3859CEC9C9391E0968780
S1130CE031110FC0E0918702F0918802309741F0F2
S1130CF0A081B1812C919681922319F080E001C0EA
S1130D0080E0882349F0EBE7F2E081E08787C08A3E
S1130D10D18AE28AF38A02C010928A028091A102E7
S1130D20813011F480930002FF90EF90DF90CF9018
S1130D3008950E9410050E948605FDCF6FEF7FEF96
S1130D4081E090E00E949D000895EE0FFF1F059042
S10D0D50F491E02D0994F894FFCF0C
S1130D5A01010204401020400A010A010A012A0082
S1130D6A0A010A010A010B010B010B012B000B01F9
S1130D7A0B010B01C002C6023F065B4F666D7D077D
S1050D8A7F6F75
S9030000FC
