S0180000757365725F73776963685F636C6173732E737265635B
S11300000C9473000C9490000C9490000C94900049
S11300100C9490000C9490000C9490000C9490001C
S11300200C9490000C9490000C9490000C9490000C
S11300300C9490000C9490000C9490000C949000FC
S11300400C9490000C9490000C9490000C949000EC
S11300500C9490000C9490000C9490000C949000DC
S11300600C9490000C9490000C9490000C949000CC
S11300700C9490000C9490000C9490000C949000BC
S11300800C9490000C9490000C9490000C949000AC
S11300900C9490000C9490000C9490000C9490009C
S11300A00C9490000C9490000C9490000C9490008C
S11300B00C9490000C9490000C9490000C9490007C
S11300C00C9490000C9490000C9490000C9490006C
S11300D00C9490000C9490000C9490000C9490005C
S11300E00C949000FD0011241FBECFEFD1E2DEBFBF
S11300F0CDBF22E0A0E0B2E001C01D92AF31B20753
S1130100E1F710E0C3E7D0E004C02197FE010E94AC
S11301100401C237D107C9F70E94CB000C940A012D
S11301200C9400000197B1F56F3F7F4F99F5E2E120
S1130130F2E02BE230E0318320838AE290E0938383
S1130140828340E84483158216821782108644E62F
S113015050E060E070E04187528763877487E0E095
S1130160F2E042E350E060E070E043875487658743
S1130170768749E250E05183408333832283958319
S1130180848388E0868317821086118612861786F8
S1130190108A118A0895F894E2E1F2E0A281B38111
S11301A09C918481892B8C93A081B1818C919481C1
S11301B0909589238C93E0E0F2E0A481B5818C9141
S11301C09681909589238C93A281B3819C91868199
S11301D0892B8C93789480911102811110921102D1
S11301E08823C9F3A2E1B2E0ED91FC9111979081CB
S11301F014968C9189278083EECF6FEF7FEF81E097
S113020090E00E9492000895EE0FFF1F0590F49174
S10B0210E02D0994F894FFCFDE
S9030000FC
