:100000000C9473000C949B000C949B000C949B002C
:100010000C949B000C949B000C949B000C949B00F4
:100020000C949B000C949B000C949B000C949B00E4
:100030000C949B000C949B000C949B000C949B00D4
:100040000C949B000C949B000C949B000C949B00C4
:100050000C949B000C949B000C949B000C949B00B4
:100060000C949B000C949B000C949B000C949B00A4
:100070000C949B000C949B000C949B000C949B0094
:100080000C94E5000C949B000C949B000C949B003A
:100090000C949B000C949B000C949B000C949B0074
:1000A0000C949B000C949B000C949B000C949B0064
:1000B0000C949B000C949B000C949B000C949B0054
:1000C0000C949B000C949B000C949B000C949B0044
:1000D0000C949B000C949B000C949B000C949B0034
:1000E0000C949B002A0211241FBECFEFD1E2DEBF89
:1000F000CDBF12E0A0E0B2E0E2E7F4E002C005907C
:100100000D92AE32B107D9F722E0AEE2B2E001C003
:100110001D92A436B207E1F710E0C3E7D0E004C0B7
:100120002197FE010E943102C237D107C9F70E9410
:10013000D9010C9437020C940000019709F044C0D7
:100140006F3F7F4F09F040C08AE0E3E2F2E0AAE5AA
:10015000B2E001900D928A95E1F740E0473030F52A
:10016000842F90E09C01220F331FF901EB5EFD4FBD
:1001700060817181F901E05DFD4F71836083F90158
:10018000E95FFD4F20813181FC013796EE0FFF1FA3
:10019000E05DFD4F31832083FC01E050FE4F208164
:1001A000FC01E05DFD4F248F4F5FD8CFE0E3F2E02C
:1001B0008BE091E094A383A38AE091E096A385A3CA
:1001C00080E887A310A611A608951F920F920FB67C
:1001D0000F9211242F933F934F935F936F938F93BD
:1001E0009F93AF93BF93CF93DF93EF93FF93E091F0
:1001F0002E02F0912F02309709F4B5C020E027308D
:10020000A0F4822F90E0DC01AA0FBB1FAE0FBF1F2E
:100210000D90BC91A02D3C91EF01C80FD91F8C8D82
:10022000809583238C932F5FEACF81A5882309F4DF
:1002300048C080A59DEC899F812D112486958695C7
:100240008695A3A1B4A12C9197A1922B9C938A305F
:1002500008F085C0DF01A80FB11D9A966C9180E06F
:10026000873008F07CC0282F30E0462F50E0082E61
:1002700002C0559547950A94E2F740FF10C0D90196
:10028000AA0FBB1FAE0FBF1F0D90BC91A02D4C91AC
:10029000EF01C20FD31F9C8D942B9C9310C0D901EA
:1002A000AA0FBB1FAE0FBF1F0D90BC91A02D4C918C
:1002B000EF01C20FD31F9C8D909594239C938F5F69
:1002C000CFCF20A58DEC289F812D11248695869572
:1002D0008695880F982F990F990F890F281B822FC9
:1002E000A3A1B4A12C9197A1909592239C938A30BD
:1002F000B0F5DF01A80FB11D9A966C9180E08730B0
:1003000070F5282F30E0462F50E0082E02C055959A
:1003100047950A94E2F740FF10C0D901AA0FBB1F0E
:10032000AE0FBF1F0D90BC91A02D4C91EF01C20FDD
:10033000D31F9C8D942B9C9310C0D901AA0FBB1F77
:10034000AE0FBF1F0D90BC91A02D4C91EF01C20FBD
:10035000D31F9C8D909594239C938F5FD0CF91A5B4
:1003600081E0892781A7FF91EF91DF91CF91BF9124
:10037000AF919F918F916F915F914F913F912F918D
:100380000F900FBE0F901F901895E1E9F0E080816B
:10039000886080838081836080838CE790E0909385
:1003A000990080939800E1E7F0E08081826080838B
:1003B000089580E392E090932F0280932E02F894A8
:1003C00020E0273020F5822F90E0FC013796EE0FD9
:1003D000FF1FE05DFD4F0190F081E02D4081DC01C9
:1003E000A05DBD4F5C963C915C97342B3083880FA9
:1003F000991FFC01E05DFD4F0190F081E02D8081AF
:100400005C969C919095892380832F5FDACFE0E3FF
:10041000F2E0A5A1B6A19C9187A1892B8C93A3A101
:10042000B4A18C9197A1909589238C930E94C501CA
:1004300078942FEF89E698E1215080409040E1F7D1
:1004400000C0000080915802833698F78F5F809338
:100450005802EFCF6FEF7FEF81E090E00E949D00A8
:100460000895EE0FFF1F0590F491E02D0994F89484
:02047000FFCFBC
:10047200010204401020400A010A010A012A000A6E
:10048200010A010A010B010B010B012B000B010BED
:0E049200010B013F065B4F666D7D077F6F001B
:00000001FF
