:100000000C9473000C9490000C9490000C9490004D
:100010000C9490000C9490000C9490000C94900020
:100020000C9490000C9490000C9490000C94CC00D4
:100030000C9490000C9490000C9490000C94900000
:100040000C9490000C9490000C9490000C949000F0
:100050000C9490000C9490000C9490000C949000E0
:100060000C9490000C9490000C9490000C949000D0
:100070000C9490000C9490000C9490000C949000C0
:100080000C9490000C9490000C9490000C949000B0
:100090000C9490000C9490000C9490000C949000A0
:1000A0000C9490000C9490000C94A5000C9490007B
:1000B0000C9490000C9490000C9490000C94900080
:1000C0000C9490000C9490000C9490000C94900070
:1000D0000C9490000C9490000C9490000C94900060
:1000E0000C9490006A0111241FBECFEFD1E2DEBF55
:1000F000CDBF22E0A0E0B2E001C01D92AA30B2075D
:10010000E1F710E0C3E7D0E004C02197FE010E94B0
:100110007101C237D107C9F70E9419010C94770108
:100120000C940000019781F46F3F7F4F69F41092A7
:100130000602109207021092080210920902E2E0F1
:10014000F2E08FE38083118208951F920F920FB621
:100150000F9211248F939F93AF93BF93EF93FF93CD
:10016000E0910402F0910502309759F0808191816D
:10017000A281B3810196A11DB11D80839183A283C9
:10018000B383FF91EF91BF91AF919F918F910F90AA
:100190000FBE0F901F9018951F920F920FB60F92DF
:1001A00011242F933F934F935F938F939F93EF93DC
:1001B000FF93E0910002F0910102309769F15091B4
:1001C00006015F7380E090E0863091052CF5252FC5
:1001D00030E0082E02C0359527950A94E2F720FDFD
:1001E00019C04081242F30E0082E02C03595279594
:1001F0000A94E2F720FF0EC021812F5F218321E0C6
:1002000030E0082E02C0220F331F0A94E2F7209537
:10021000422340830196D8CFFF91EF919F918F9118
:100220005F914F913F912F910F900FBE0F901F90B4
:10023000189586E092E0909305028093040282E094
:1002400092E09093010280930002F894E1EAF0E0DA
:1002500080818C7E808380818860808380818360C0
:10026000808380818B7F80838CE790E09093A900CE
:100270008093A800E2E7F0E0808182608083E7E07D
:10028000F1E08081807C8083E8E0F1E080818F6311
:100290008083E8E6F0E0808184608083EDE6F0E032
:1002A00080818F63808378948FB7F89440910602A1
:1002B0005091070260910802709109028FBF7894F3
:1002C00080910302863081F7E2E0F2E08FE38083E1
:1002D0001182EACF6FEF7FEF81E090E00E94920001
:1002E0000895EE0FFF1F0590F491E02D0994F89406
:0202F000FFCF3E
:00000001FF
