S0130000626F6C6572615F636F64652E73726563A2
S11300000C9472000C948F000C948F000C948F004D
S11300100C948F000C948F000C948F000C948F0020
S11300200C948F000C948F000C948F000C944A2035
S11300300C948F000C948F000C948F000C948F0000
S11300400C948F000C948F000C948F000C948F00F0
S11300500C948F000C948F000C948F000C948F00E0
S11300600C948F000C948F000C948F000C948F00D0
S11300700C948F000C948F000C948F000C948F00C0
S11300800C948F000C948F000C948F000C948F00B0
S11300900C948F000C948F000C948F000C948F00A0
S11300A00C948F000C948F000C9481200C948F007E
S11300B00C948F000C948F000C948F000C948F0080
S11300C00C948F000C948F000C948F000C948F0070
S11300D00C948F000C948F000C948F000C948F0060
S11300E00C948F0011241FBECFEFD1E2DEBFCDBF31
S11300F012E0A0E0B2E0EEE7F5E402C005900D9254
S1130100AE38B107D9F722E0AEE8B2E001C01D92E3
S1130110A239B207E1F70E94B8200C94BD220C94D6
S11301200000CF92EF92FF920F931F93CF93DF9330
S1130130CDB7DEB72E970FB6F894DEBF0FBECDBF96
S11301409B838A837D836C835F834E83398728876F
S11301501B870A87FD86EC86CE868A819B812AE0EE
S1130160E0E0F2E0DC019A9601900D922A95E1F725
S11301702A813B8185E090E0A0E0B0E0F90180AF06
S113018091AFA2AFB3AF19828981873008F048C01C
S11301908981882F90E02981222F30E0220F331F9C
S11301A04C815D81240F351FF901208131814A8101
S11301B05B81880F991F840F951FFC013183208375
S11301C08981882F90E02981222F30E0220F331F6C
S11301D04E815F81240F351FF901208131814A81CD
S11301E05B810796880F991F840F951FFC0131834B
S11301F020838981882F90E02981222F30E048854F
S11302005985240F351FF90140812A813B81820FD2
S1130210931F4C96FC01408389818F5F8983B4CFFF
S11302208A819B812A853B85FC0134A323A38A818F
S11302309B812C853D85FC0136A325A38A819B8166
S11302402E85FC0127A38A819B81FC0110A68A814B
S11302509B81FC0111A600002E960FB6F894DEBF18
S11302600FBECDBFDF91CF911F910F91FF90EF9003
S1130270CF900895CF93DF9300D01F92CDB7DEB710
S11302809B838A8319828981873008F059C08981C8
S1130290882F90E02A813B810796880F991F820F4F
S11302A0931FFC01808191812981222F30E04A81B2
S11302B05B81295F3F4F220F331F240F351FF90144
S11302C020813181F90160812981222F30E04A8126
S11302D05B81240F351F245E3F4FF9012081262BBB
S11302E0FC0120838981882F90E02A813B81880F3B
S11302F0991F820F931FFC01808191812981222FF4
S113030030E04A815B81220F331F240F351FF9012E
S113031020813181F9012081622F2981222F30E04F
S11303204A815B81240F351F245E3F4FF9012081F0
S113033020952623FC01208389818F5F8983A3CFA5
S11303408A819B81FC0185A196A12A813B81F901C7
S113035025A136A1F90140812A813B81F90127A118
S1130360242BFC0120838A819B81FC0183A194A11D
S11303702A813B81F90123A134A1F9012081422F73
S11303802A813B81F90127A120952423FC012083A4
S113039000000F900F900F90DF91CF910895CF93AD
S11303A0DF9300D01F92CDB7DEB79B838A83198277
S11303B08981873070F58981882F90E02A813B817B
S11303C0880F991F820F931FFC01808191812981DD
S11303D0222F30E04A815B81220F331F240F351F07
S11303E0F90120813181F9012081622F2981222F95
S11303F030E04A815B81240F351F245E3F4FF901B1
S1130400208120952623FC01208389818F5F8983A5
S1130410CFCF00000F900F900F90DF91CF910895F0
S1130420CF93DF9300D000D01F92CDB7DEB79C836B
S11304308B836D838D818A3008F076C08D81882FFF
S113044090E02B813C81820F931F8A96FC0180816E
S11304508A8319828981873008F067C08A81882F4E
S113046090E02981222F30E002C0959587952A9546
S1130470E2F781709927892B49F18981882F90E0CF
S11304802B813C81880F991F820F931FFC0180816F
S113049091812981222F30E04B815C81220F331F0F
S11304A0240F351FF90120813181F90160812981EF
S11304B0222F30E04B815C81240F351F245E3F4F97
S11304C0F9012081262BFC0120832AC08981882FF1
S11304D090E02B813C81880F991F820F931FFC01B0
S11304E0808191812981222F30E04B815C81220F10
S11304F0331F240F351FF90120813181F901208137
S1130500622F2981222F30E04B815C81240F351F1B
S1130510245E3F4FF901208120952623FC0120838E
S113052089818F5F898396CF00000F900F900F9081
S11305300F900F90DF91CF910895CF93DF9300D068
S11305401F92CDB7DEB79A8389836B838B81843600
S113055010F083E68B8389819A812B81FC0120A78B
S113056000000F900F900F90DF91CF910895CF93DB
S1130570DF9300D000D0CDB7DEB79C838B838B8113
S11305809C810E94CF018B819C81FC0181A58823E1
S113059029F18B819C81FC0190A58DEC989F812D84
S11305A0112486958695869589838B819C81FC018F
S11305B083A194A12B813C81F90123A134A1F901E8
S11305C040812B813C81F90127A1242BFC0120834C
S11305D08B819C8169810E9410022EC08B819C8139
S11305E0FC0190A58DEC989F812D1124869586950C
S11305F08695880F282F220F220F820FF92FF81BC0
S11306008F2F8A838B819C81FC0183A194A12B81F0
S11306103C81F90123A134A1F9012081422F2B81CE
S11306203C81F90127A120952423FC0120838B819F
S11306309C816A810E9410028B819C81FC0191A59E
S113064081E0292F28278B819C81FC0121A70000B0
S11306500F900F900F900F90DF91CF910895CF934B
S1130660DF93CDB7DEB727970FB6F894DEBF0FBE82
S1130670CDBF9A8389834B835C836D837E832F8371
S11306808F818823C1F08B819C81AD81BE8128EE4E
S113069033E040E050E0BC01CD010E949B22DC012C
S11306A0CB0184389340A105B10528F089819A8152
S11306B00E94CF012AC089819A81FC0184A995A94D
S11306C0A6A9B7A92B813C814D815E81281B390BDA
S11306D04A0B5B0B89819A81FC0180AD91ADA2AD7F
S11306E0B3AD281739074A075B0778F089819A81E7
S11306F00E94B70229813A818B819C81AD81BE81A0
S1130700F90184AB95ABA6ABB7AB000027960FB647
S1130710F894DEBF0FBECDBFDF91CF910895CF9384
S1130720DF93CDB7DEB727970FB6F894DEBF0FBEC1
S1130730CDBF9A8389837C836B835E834D832F83B0
S113074089819A812B813C81FC01318320838981B9
S11307509A812D813E81FC013383228389819A8190
S11307602F81FC01248389819A81FC0115821682E0
S11307701782108629813A8184E690E0A0E0B0E0F7
S1130780F90181879287A387B48789819A81FC01C3
S11307901586000027960FB6F894DEBF0FBECDBFB6
S11307A0DF91CF910895CF93DF9300D0CDB7DEB71B
S11307B09A83898389819A81FC0182819381298129
S11307C03A81F90122813381F901408129813A81F9
S11307D0F9012481242BFC01208389819A81FC0165
S11307E08081918129813A81F90120813181F90146
S11307F02081422F29813A81F901248120952423E3
S1130800FC01208300000F900F90DF91CF91089599
S1130810CF93DF9300D0CDB7DEB79A8389838981E4
S11308209A8121E0FC01258789819A81FC018081DC
S1130830918129813A81F90120813181F901408135
S113084029813A81F9012481242BFC0120830000B1
S11308500F900F90DF91CF910895CF93DF9300D045
S1130860CDB7DEB79A83898389819A81FC01158685
S113087089819A81FC018081918129813A81F901E0
S113088020813181F9012081422F29813A81F901A6
S1130890248120952423FC01208300000F900F90D5
S11308A0DF91CF910895CF93DF9300D0CDB7DEB71A
S11308B09A83898389819A81FC018081918129812C
S11308C03A81F90120813181F901408129813A81FC
S11308D0F90124812427FC01208300000F900F904C
S11308E0DF91CF910895CF93DF93CDB7DEB72797EC
S11308F00FB6F894DEBF0FBECDBF9A8389834B83B6
S11309005C836D837E832F8389819A81FC01858535
S1130910882309F442C08F81882359F189819A81FF
S1130920FC0185819681A781B0852B813C814D8115
S11309305E81281B390B4A0B5B0B89819A81FC0170
S113094081859285A385B485281739074A075B07F3
S1130950C8F189819A810E94530429813A818B814B
S11309609C81AD81BE81F90185839683A783B0877D
S113097029C089819A81FC018081918129813A81F0
S1130980F90120813181F901408129813A81F901FC
S11309902481242BFC01208315C089819A81FC01C8
S11309A08081918129813A81F90120813181F90184
S11309B02081422F29813A81F90124812095242321
S11309C0FC012083000027960FB6F894DEBF0FBE0B
S11309D0CDBFDF91CF9108950F93CF93DF93CDB720
S11309E0DEB729970FB6F894DEBF0FBECDBF9A834A
S11309F089837C836B835E834D8338872F83098748
S1130A0089819A812B813C81FC01318320838981F6
S1130A109A812D813E81FC013383228389819A81CD
S1130A202F813885FC013583248389819A81298526
S1130A30FC01268389819A81FC01178289819A812C
S1130A40FC01108689819A81FC01118689819A8131
S1130A50FC011286138614861586000029960FB6AB
S1130A60F894DEBF0FBECDBFDF91CF910F910895F3
S1130A70CF93DF9300D0CDB7DEB79A838983898182
S1130A809A81FC018481958129813A81F90124812B
S1130A903581F9012081422F29813A81F90126818A
S1130AA020952423FC01208389819A81FC01828181
S1130AB0938129813A81F90122813381F9014081AD
S1130AC029813A81F9012681242BFC01208300002D
S1130AD00F900F90DF91CF910895CF93DF93CDB70F
S1130AE0DEB727970FB6F894DEBF0FBECDBF9B834A
S1130AF08A834C835D836E837F838A819B81FC011F
S1130B0022853385448555858C819D81AE81BF8145
S1130B10281739074A075B0709F46FC02A813B810C
S1130B208C819D81AE81BF81F90182879387A487DF
S1130B30B5878A819B81FC0180819181FC012081A0
S1130B408A819B81FC018681922F982381E09923DD
S1130B5009F080E089838981882389F08A819B81D7
S1130B60FC0187818A3058F48A819B81FC0187814A
S1130B7021E0280F8A819B81FC01278315C099817C
S1130B8081E08927882381F08A819B81FC01878108
S1130B90882351F08A819B81FC0187812FEF280FE4
S1130BA08A819B81FC0127838A819B81FC0180854A
S1130BB0882351F08A819B81FC018781882321F459
S1130BC08A819B81FC0110868A819B81FC0190852E
S1130BD081E08927882391F08A819B81FC018781A8
S1130BE08A3061F48A819B8121E0FC0120878A811B
S1130BF09B8121E0FC01218701C0000027960FB6EC
S1130C00F894DEBF0FBECDBFDF91CF910895CF938F
S1130C10DF9300D0CDB7DEB79A83898389819A8127
S1130C20FC0180850F900F90DF91CF910895CF93B1
S1130C30DF9300D0CDB7DEB79A83898389819A8107
S1130C40FC018185882331F089819A81FC01118618
S1130C5081E001C080E00F900F90DF91CF91089563
S1130C60CF93DF9300D0CDB7DEB79A838983898190
S1130C709A81FC01178289819A81FC0110868981FD
S1130C809A81FC01118600000F900F90DF91CF91A3
S1130C9008958F929F92AF92BF92CF92EF92FF925C
S1130CA00F931F93CF93DF93CDB7DEB760970FB643
S1130CB0F894DEBF0FBECDBF9A8389837C836B8398
S1130CC05E834D832F8319870887FB86EA86CC864B
S1130CD0BE86AD86988A8F8629813A818CE291E01E
S1130CE0A0E0B0E0F901868B978BA08FB18F89814A
S1130CF09A812B813C81FC013183208389819A81F3
S1130D002D813E81FC013383228389819A812F8145
S1130D10FC01248389819A8128853985FC013683E5
S1130D20258389819A812A853B85FC013087278325
S1130D3089819A812C85FC01218789819A812D855D
S1130D403E85FC013387228789819A812F853889E2
S1130D50FC013587248789819A81FC011686898163
S1130D609A8121E0FC01278789819A81FC01108AFC
S1130D7089819A81FC01118A89819A81FC01128AF4
S1130D80138A148A158A000060960FB6F894DEBFA1
S1130D900FBECDBFDF91CF911F910F91FF90EF90C8
S1130DA0CF90BF90AF909F908F900895CF93DF9393
S1130DB000D0CDB7DEB79A83898389819A81FC01FB
S1130DC08281938129813A81F90122813381F90158
S1130DD0408129813A81F9012481242BFC0120835B
S1130DE089819A81FC018781908529813A81F90161
S1130DF027813085F901408129813A81F9012185D2
S1130E00242BFC01208389819A81FC0180819181BA
S1130E1029813A81F90120813181F9012081422F10
S1130E2029813A81F901248120952423FC0120831E
S1130E3089819A81FC018581968129813A81F90110
S1130E4025813681F9012081422F29813A81F901D6
S1130E50218520952423FC01208389819A81FC012A
S1130E6082859385FC01108200000F900F90DF9122
S1130E70CF910895CF93DF9300D000D000D0CDB7A9
S1130E80DEB79A8389834B835C836D837E83298158
S1130E903A818B819C81AD81BE81F901868B978BD0
S1130EA0A08FB18F000026960FB6F894DEBF0FBE58
S1130EB0CDBFDF91CF9108950F93CF93DF93CDB73B
S1130EC0DEB729970FB6F894DEBF0FBECDBF9B8364
S1130ED08A836C832D833E834F83588709878C8153
S1130EE0882311F081E001C082E089838A819B819B
S1130EF0FC0190898981981709F461C08A819B81DA
S1130F0021E0FC01218B2A813B818D819E81AF816F
S1130F10B885F901828B938BA48BB58B8A819B81D5
S1130F20FC0184859585892B39F08A819B81FC019C
S1130F30848595850E9430068C818823A1F08A815E
S1130F409B81FC01808191812A813B81F90120816F
S1130F503181F90140812A813B81F9012481242BCB
S1130F60FC01208315C08A819B81FC0180819181D1
S1130F702A813B81F90120813181F9012081422FAD
S1130F802A813B81F901248120952423FC012083BB
S1130F908A819B81FC01828593852985FC012083BC
S1130FA08A819B812C81FC0127878A819B81FC019A
S1130FB0108A8A819B8121E0FC01268701C0000000
S1130FC029960FB6F894DEBF0FBECDBFDF91CF9147
S1130FD00F910895CF93DF9300D0CDB7DEB79A83F6
S1130FE0898389819A81FC0182859385FC01108221
S1130FF089819A81FC01168689819A81FC01118A72
S113100000000F900F90DF91CF910895CF93DF935D
S113101000D000D000D0CDB7DEB79A8389834B834C
S11310205C836D837E8389819A81FC01968581E04E
S11310308927882309F06CC089819A81FC01848501
S11310409585892B09F464C089819A81FC01818981
S1131050882309F442C089819A81FC018289938999
S1131060A489B5892B813C814D815E81281B390B74
S11310704A0B5B0B89819A81FC0186899789A08D33
S1131080B18D281739074A075B0708F443C08981E3
S11310909A81FC01118A89819A81FC018485958554
S11310A00E940706882389F089819A810E94EA07B1
S11310B089819A81FC018785882311F021E001C090
S11310C022E089819A81FC01208B89819A81FC012B
S11310D0848595850E9417061DC089819A81FC012B
S11310E0848595850E9417068823A9F089819A81B1
S11310F00E94EA0789819A81FC018785882311F07F
S113110021E001C022E089819A81FC01208B03C087
S1131110000001C0000026960FB6F894DEBF0FBE93
S1131120CDBFDF91CF910895CF93DF9300D0CDB79A
S1131130DEB79A83898389819A81FC0186850F9021
S11311400F90DF91CF910895CF93DF9300D01F923A
S1131150CDB7DEB79A8389836B8389819A81FC0139
S1131160968581E08927882349F089819A81FC0149
S113117090898B81981711F481E001C080E00F9071
S11311800F900F90DF91CF9108950F93CF93DF933A
S1131190CDB7DEB729970FB6F894DEBF0FBECDBF2B
S11311A09A8389837C836B835E834D8338872F8303
S11311B0098789819A812B813C81FC0131832083B9
S11311C089819A812D813E81FC0133832283898127
S11311D09A812F813885FC013583248389819A8102
S11311E02985FC01268389819A81FC0117828981E2
S11311F09A81FC01108689819A81FC01118689817A
S11312009A81FC01128613861486158689819A8137
S1131210FC01168689819A81FC01178600002996B3
S11312200FB6F894DEBF0FBECDBFDF91CF910F9103
S11312300895CF93DF9300D0CDB7DEB79A83898327
S113124089819A81FC018481958129813A81F901FE
S113125024813581F9012081422F29813A81F901C4
S1131260268120952423FC01208389819A81FC0115
S11312708281938129813A81F90122813381F901A3
S1131280408129813A81F9012681242BFC012083A4
S113129000000F900F90DF91CF910895CF93DF93CB
S11312A0CDB7DEB727970FB6F894DEBF0FBECDBF1C
S11312B09B838A834C835D836E837F838A819B8136
S11312C0FC0122853385448555858C819D81AE81C1
S11312D0BF81281739074A075B0709F477C02A81B9
S11312E03B818C819D81AE81BF81F9018287938787
S11312F0A487B5878A819B81FC0180819181FC014F
S113130020818A819B81FC018681922F982381E030
S1131310992309F080E089838981882389F08A816F
S11313209B81FC0187818A3058F48A819B81FC016E
S1131330878121E0280F8A819B81FC01278315C0C6
S1131340998181E08927882381F08A819B81FC012E
S11313508781882351F08A819B81FC0187812FEF4B
S1131360280F8A819B81FC0127838A819B81FC0150
S11313708085882351F08A819B81FC0187818823A1
S113138021F48A819B81FC0110868A819B81FC0166
S1131390908581E089278823D1F08A819B81FC0193
S11313A087818A30A1F48A819B8121E0FC01208716
S11313B08A819B8121E0FC0121878A819B81FC0138
S11313C027858A819B81FC01268701C0000027961E
S11313D00FB6F894DEBF0FBECDBFDF91CF91089555
S11313E0CF93DF9300D0CDB7DEB79A838983898109
S11313F09A81FC0180850F900F90DF91CF91089521
S1131400CF93DF9300D0CDB7DEB79A8389838981E8
S11314109A81FC018185882331F089819A81FC01BC
S1131420118681E001C080E00F900F90DF91CF9191
S11314300895CF93DF9300D0CDB7DEB79A83898325
S113144089819A81FC0186850F900F90DF91CF915D
S11314500895CF93DF9300D01F92CDB7DEB79A8360
S113146089836B8389819A812B81FC012787000002
S11314700F900F900F90DF91CF910895CF93DF934A
S113148000D01F92CDB7DEB79A8389836B8389819D
S11314909A812AE0FC01278389819A8121E0FC0159
S11314A0208789819A81FC01118689819A812B8107
S11314B0FC01268789819A812B81FC012787000002
S11314C00F900F900F90DF91CF910895CF93DF93FA
S11314D000D0CDB7DEB79A83898389819A81FC01D4
S11314E0178289819A81FC01108689819A81FC0185
S11314F0118600000F900F90DF91CF9108958F9285
S11315009F92AF92BF92CF92EF92FF920F931F934D
S1131510CF93DF93CDB7DEB760970FB6F894DEBFF5
S11315200FBECDBF9A8389837C836B835E834D8397
S11315302F8319870887FB86EA86CC86BE86AD860C
S1131540988A8F8689819A812B813C81FC01318321
S1131550208389819A812D813E81FC0133832283FA
S113156089819A812F81FC01248389819A8128852C
S11315703985FC013683258389819A812A853B85B7
S1131580FC013087278389819A812C85FC0121877E
S113159089819A812D853E85FC0133872287898143
S11315A09A812F853889FC013587248789819A811E
S11315B0FC01168689819A8121E0FC0127878981B3
S11315C09A81FC01108A89819A81FC01118A128A0C
S11315D0138A148A89819A81FC01158A89819A81E6
S11315E0FC01168A89819A81FC01178A108E118E5A
S11315F0128E89819A81FC01138E000060960FB6C9
S1131600F894DEBF0FBECDBFDF91CF911F910F9134
S1131610FF90EF90CF90BF90AF909F908F900895E0
S1131620CF93DF9300D0CDB7DEB79A8389838981C6
S11316309A81FC018281938129813A81F901228175
S11316403381F901408129813A81F9012481242BD4
S1131650FC01208389819A81FC01878190852981FD
S11316603A81F90127813085F901408129813A8144
S1131670F9012185242BFC01208389819A81FC01B5
S11316808081918129813A81F90120813181F90197
S11316902081422F29813A81F90124812095242334
S11316A0FC01208389819A81FC01858196812981AD
S11316B03A81F90125813681F9012081422F29815E
S11316C03A81F901218520952423FC012083898115
S11316D09A81FC0182859385FC01108200000F90A1
S11316E00F90DF91CF910895EF920F931F93CF93B3
S11316F0DF93CDB7DEB729970FB6F894DEBF0FBEE0
S1131700CDBF9A8389836B834C830D831E832F8380
S11317103887E98689819A81FC0184859585892B9E
S113172009F467C089819A8121E0FC01268B8981B3
S11317309A812C81FC01238F89819A81FC01178A6B
S1131740108E118E128E89819A8121E0FC01208BEA
S113175029813A818D819E81AF81B885F901818B80
S1131760928BA38BB48B89819A81FC0184859585A6
S11317700E94660A8B818823A1F089819A81FC01E9
S11317808081918129813A81F90120813181F90196
S1131790408129813A81F9012481242BFC01208391
S11317A015C089819A81FC018081918129813A81C6
S11317B0F90120813181F9012081422F29813A8167
S11317C0F901248120952423FC01208389819A81B5
S11317D0FC01828593852985FC01208389819A8176
S11317E02B81FC01278789819A8121E0FC012687CE
S11317F001C0000029960FB6F894DEBF0FBECDBF1E
S1131800DF91CF911F910F91EF900895EF920F9375
S11318101F93CF93DF93CDB7DEB72A970FB6F89413
S1131820DEBF0FBECDBF9B838A836C834D830E8343
S11318301F8328873987EA868A819B81FC018485F6
S11318409585892B09F469C08A819B812D81FC01CE
S1131850258B8A819B816C810E94650E89838A8194
S11318609B81FC018485958569810E94290A8A816E
S11318709B8121E0FC01208B2A813B818E819F8109
S1131880A885B985F901818B928BA38BB48B8A814E
S11318909B81FC01848595850E94660A8C8188233E
S11318A0A1F08A819B81FC01808191812A813B8105
S11318B0F90120813181F90140812A813B81F901BB
S11318C02481242BFC01208315C08A819B81FC0187
S11318D0808191812A813B81F90120813181F90143
S11318E02081422F2A813B81F901248120952423E0
S11318F0FC0120838A819B81FC01828593852A8552
S1131900FC0120838A819B812C81FC0127878A81A9
S11319109B8121E0FC01268701C000002A960FB6B6
S1131920F894DEBF0FBECDBFDF91CF911F910F9111
S1131930EF900895CF93DF9300D0CDB7DEB79A83AD
S1131940898389819A81FC0182859385FC011082B7
S113195089819A81FC01168689819A81FC01108A09
S113196000000F900F90DF91CF910895EF92FF92B6
S11319700F931F93CF93DF93CDB7DEB728970FB69E
S1131980F894DEBF0FBECDBF9C838B834D835E83F3
S11319906F8378878B819C81FC01968581E0892700
S11319A0882309F03FC18B819C81FC018485958546
S11319B0892B09F437C18B819C81FC01868988239A
S11319C009F4B7C08B819C81FC018089882309F4C8
S11319D04AC08B819C81FC0181899289A389B48945
S11319E02D813E814F81588579018A01E81AF90ACF
S11319F00A0B1B0BD801C7018C329140A105B1051C
S1131A0008F412C18B819C81FC01108A8B819C811A
S1131A10FC01848595850E94F0098823E1F08B817F
S1131A209C810E949A0C8B819C81FC01238D8B816B
S1131A309C81FC0184859585622F0E943E0A8B81DE
S1131A409C81FC01238D8B819C81FC01258B8B81E6
S1131A509C81FC01168A8B819C81FC01848595857F
S1131A600E94000AE1C08B819C81FC0184859585DC
S1131A700E94F009882309F44DC08B819C81FC01EC
S1131A808789908DA18DB28D892B8A2B8B2B61F444
S1131A902B813C818D819E81AF81B885F901878B33
S1131AA0908FA18FB28FC2C08B819C81FC018789EA
S1131AB0908DA18DB28D2D813E814F815885790104
S1131AC08A01E81AF90A0A0B1B0BD801C7018A3FDD
S1131AD09105A105B10508F4A9C08B819C810E94E0
S1131AE09A0C8B819C81FC01238D8B819C81FC0150
S1131AF084859585622F0E943E0A8B819C81FC011E
S1131B00238D8B819C81FC01258B8B819C81FC0125
S1131B10168A8CC08B819C81FC01178A108E118ED1
S1131B20128E8B819C81FC01848595850E94000A1C
S1131B307DC08B819C81FC018089882391F18B81FC
S1131B409C81FC0181899289A389B4892D813E817C
S1131B504F81588579018A01E81AF90A0A0B1B0B8F
S1131B60D801C7018C329140A105B10508F460C0C9
S1131B708B819C81FC01108A8B819C81FC01848572
S1131B8095850E94F009882321F08B819C810E9415
S1131B909A0C8B819C81FC01848595850E94000AA6
S1131BA047C08B819C81FC01848595850E94000A35
S1131BB0882309F43EC08B819C81FC018485958532
S1131BC00E94190A89838B819C81FC0195898981F2
S1131BD0981729F48B819C810E949A0C2AC08B81CE
S1131BE09C81FC0127858B819C81622F0E94650E5C
S1131BF08A838B819C81FC01848595856A810E94FE
S1131C00290A8B819C8121E0FC01208B2B813C8162
S1131C108D819E81AF81B885F901818B928BA38BD5
S1131C20B48B07C0000005C0000003C0000001C061
S1131C30000028960FB6F894DEBF0FBECDBFDF912B
S1131C40CF911F910F91FF90EF900895CF93DF9361
S1131C5000D01F92CDB7DEB79A8389836B838981C5
S1131C609A81FC0184859585892B11F480E017C045
S1131C7089819A81FC01968581E08927882369F00E
S1131C8089819A81FC01848595850E94190A982F7F
S1131C908B81981711F481E001C080E000000F905F
S1131CA00F900F90DF91CF910895CF93DF9300D0E1
S1131CB0CDB7DEB79A83898389819A81FC018685B1
S1131CC00F900F90DF91CF910895CF93DF9300D0C1
S1131CD000D0CDB7DEB79B838A836C838A819B81D6
S1131CE0FC0184859585892B11F480E022C08A81CA
S1131CF09B81FC01848595850E94190A89838C81C6
S1131D00882361F08981833011F482E012C08981D3
S1131D10823011F481E00DC081E00BC089818130F3
S1131D2011F482E006C08981823011F483E001C09D
S1131D3083E00F900F900F900F90DF91CF91089553
S1131D40CF93DF9300D0CDB7DEB79A83898389819F
S1131D509A812FE3FC01208389819A81FC011182FD
S1131D6000000F900F90DF91CF910895CF93DF93F0
S1131D7000D0CDB7DEB79A83898387E091E027E06E
S1131D8031E0F9012081207CFC01208388E091E08E
S1131D9028E031E0F90120812F63FC01208388E6EB
S1131DA090E028E630E0F90120812460FC012083E2
S1131DB08DE690E02DE630E0F90120812F63FC01EF
S1131DC0208300000F900F90DF91CF910895CF935F
S1131DD0DF9300D000D01F92CDB7DEB79D838C83F4
S1131DE086E091E0FC0180818F738B831A821982D3
S1131DF089819A8106970CF041C08B81882F90E0ED
S1131E00098002C0959587950A94E2F78170992715
S1131E10892B71F58C819D81FC018081882F90E054
S1131E20098002C0959587950A94E2F781709927F5
S1131E30892BF1F08C819D81FC01818121E0280FA7
S1131E408C819D81FC0121838C819D81FC01808199
S1131E50282F81E090E0098002C0880F991F0A941E
S1131E60E2F780958223282F8C819D81FC012083B9
S1131E7089819A8101969A838983BACF00000F9051
S1131E800F900F900F900F90DF91CF910895CF9303
S1131E90DF9300D0CDB7DEB79A83898389819A8195
S1131EA0FC0181810F900F90DF91CF910895CF9322
S1131EB0DF9300D0CDB7DEB79A83898389819A8175
S1131EC02FE3FC01208389819A81FC0111820000A7
S1131ED00F900F90DF91CF9108950F93CF93DF93DD
S1131EE0CDB7DEB72A970FB6F894DEBF0FBECDBFCD
S1131EF09B838A837D836C835F834E8339872887A2
S1131F000A878A819B812C813D81FC013183208356
S1131F108A819B812E813F81FC01338322838A81C4
S1131F209B8128853985FC01358324838A819B81A3
S1131F302A85FC0126838A819B81FC0110861186F7
S1131F40128613868A819B81FC0115868A819B8176
S1131F50FC0180819181FC0120818A819B81FC01AB
S1131F608681922F982381E0992309F080E0898368
S1131F708A819B812981FC0124878A819B81FC01C0
S1131F808485882311F024E101C020E08A819B81AB
S1131F90FC01278300002A960FB6F894DEBF0FBE1B
S1131FA0CDBFDF91CF910F910895CF93DF9300D0F0
S1131FB0CDB7DEB79A83898389819A81FC018481B4
S1131FC0958129813A81F90124813581F9012081A2
S1131FD0422F29813A81F901268120952423FC018D
S1131FE0208389819A81FC018281938129813A81AC
S1131FF0F90122813381F901408129813A81F90172
S11320002681242BFC01208300000F900F90DF9188
S1132010CF910895CF93DF93CDB7DEB727970FB64F
S1132020F894DEBF0FBECDBF9B838A834C835D8350
S11320306E837F838A819B81FC0120853185428563
S113204053858C819D81AE81BF81281739074A074A
S11320505B0709F470C02A813B818C819D81AE812C
S1132060BF81F90180879187A287B3878A819B8189
S1132070FC0180819181FC0120818A819B81FC018A
S11320808681922F982381E0992309F080E0898347
S11320908981882389F08A819B81FC01878184312D
S11320A058F48A819B81FC01878121E0280F8A8171
S11320B09B81FC01278315C0998181E089278823AE
S11320C081F08A819B81FC018781882351F08A8178
S11320D09B81FC0187812FEF280F8A819B81FC0162
S11320E027838A819B81FC01948581E08927882349
S11320F089F08A819B81FC018781843159F48A812A
S11321009B8121E0FC0124878A819B8121E0FC01E1
S1132110258712C08A819B81FC018485882361F014
S11321208A819B81FC018781882331F48A819B8188
S1132130FC01148601C0000027960FB6F894DEBF98
S11321400FBECDBFDF91CF910895CF93DF9300D021
S1132150CDB7DEB79A83898389819A81FC0185850D
S1132160882331F089819A81FC01158681E001C0C0
S113217080E00F900F90DF91CF910895CF93DF937C
S113218000D0CDB7DEB79A83898389819A81FC0117
S1132190108211821282138200000F900F90DF913F
S11321A0CF910895CF93DF9300D0CDB7DEB79A8354
S11321B0898380EA90E020EA30E0F90120812C7FD5
S11321C0FC01208381EA90E021EA30E0F9012081DA
S11321D02F7EFC01208381EA90E021EA30E0F901BE
S11321E020812860FC01208381EA90E021EA30E02C
S11321F0F90120812360FC01208381EA90E021EA37
S113220030E0F90120812B7FFC01208388EA90E0F3
S11322102CE730E0FC013183208382E790E022E761
S113222030E0F90120812260FC01208300000F903E
S11322300F90DF91CF910895CF93DF9300D0CDB766
S1132240DEB79A83898389819A81FC018081918197
S1132250A281B3810196A11DB11D29813A81F901A1
S113226080839183A283B38300000F900F90DF914A
S1132270CF910895CF93DF93CDB7DEB727970FB6ED
S1132280F894DEBF0FBECDBF9F838E838FE590E0B1
S1132290FC0180818983F8948E819F81FC01808177
S11322A09181A281B3818A839B83AC83BD838FE5B3
S11322B090E02981FC0120838A819B81AC81BD81CE
S11322C0BC01CD0127960FB6F894DEBF0FBECDBF7B
S11322D0DF91CF910895CF93DF9300D0CDB7DEB7D0
S11322E09A83898389819A81FC01168E89819A81D6
S11322F0FC01178E89819A81FC0110A289819A813F
S1132300FC0111A289819A81FC0112A213A214A2D8
S113231015A289819A81FC0116A217A210A611A602
S113232089819A81FC0112A600000F900F90DF9121
S1132330CF910895CF93DF9300D01F92CDB7DEB72E
S11323409A8389836B8389819A812B81FC0122A7DB
S113235000000F900F900F90DF91CF910895CF93CD
S1132360DF9300D0CDB7DEB79A83898389819A81C0
S1132370FC0182A50F900F90DF91CF910895EF9209
S1132380FF920F931F93CF93DF9300D000D0CDB76C
S1132390DEB79A83898389819A81FC01848D958D26
S11323A00E943A11DC01CB0129813A81F90186A30B
S11323B097A3A0A7B1A789819A81FC0186A197A1BF
S11323C0A0A5B1A529813A81F90122853385AC0103
S11323D0BD01C9010E946D0589819A81FC0186A114
S11323E097A1A0A5B1A529813A81F9012485358554
S11323F0AC01BD01C9010E944E0989819A81FC0189
S113240086A197A1A0A5B1A529813A81F9012685C4
S11324103785AC01BD01C9010E946D0589819A818E
S1132420FC0186A197A1A0A5B1A529813A81F90152
S113243020893189AC01BD01C9010E946D058981E2
S11324409A81FC0186A197A1A0A5B1A529813A8111
S1132450F90122893389AC01BD01C9010E946D05CE
S113246089819A81FC0186A197A1A0A5B1A52981A2
S11324703A81F90124893589AC01BD01C9010E9461
S11324800A1089819A81FC0186A197A1A0A5B1A512
S113249029813A81F90120813181AC01BD01C90151
S11324A00E94060889819A81FC0186A197A1A0A5B2
S11324B0B1A529813A81F90122813381AC01BD01A1
S11324C0C9010E94B60C89819A81FC0186A197A159
S11324D0A0A5B1A529813A81F90124813581AC01F6
S11324E0BD01C9010E94060889819A81FC0186A167
S11324F097A1A0A5B1A529813A81F9012681378147
S1132500AC01BD01C9010E94060889819A81FC01C0
S113251086A197A1A0A5B1A529813A81F9012085B9
S11325203185AC01BD01C9010E94060889819A81E7
S1132530FC01478D89819A81FC0186A197A1A0A500
S1132540B1A529813A81F9010688F789E02DFC8338
S1132550EB83242FAC01BD018B819C810E94730409
S113256089819A81FC0190A181E0492F48278981C2
S11325709A81FC0186A197A1A0A5B1A529813A81E0
S1132580F901008CF18DE02DFC83EB83242FAC0149
S1132590BD018B819C810E942F0389819A81FC015A
S11325A080A1882301F189819A81FC0126A137A1A8
S11325B040A551A589819A81FC0182A193A1A4A17E
S11325C0B5A179018A01E81AF90A0A0B1B0BD80193
S11325D0C701803E9349A440B10528F089819A81BE
S11325E021E0FC01278F00000F900F900F900F90B7
S11325F0DF91CF911F910F91FF90EF900895CF93AA
S1132600DF9300D000D0CDB7DEB79A8389837C8373
S11326106B8325E832E089819A81FC013183208330
S113262089819A812B813C81FC01338322830000C0
S11326300F900F900F900F90DF91CF910895CF934B
S1132640DF9300D0CDB7DEB79A8389838FEF0F90E5
S11326500F90DF91CF910895CF93DF9300D0CDB742
S1132660DEB79A83898300000F900F90DF91CF919A
S11326700895CF93DF9300D0CDB7DEB79A838983D3
S113268000000F900F90DF91CF910895CF93DF93C7
S113269000D0CDB7DEB79A83898300000F900F90E6
S11326A0DF91CF910895CF93DF9300D000D0CDB7C1
S11326B0DEB79A8389837C836B8389819A812B819A
S11326C03C81B9010E94FF1229E732E089819A8195
S11326D0FC013183208300000F900F900F900F9026
S11326E0DF91CF910895CF93DF9300D0CDB7DEB7BC
S11326F09A83898381EC90E0FC01108284E290E06B
S113270024E230E0F9012081206FFC0120838AE07B
S113271091E02AE031E0F90120812860FC01208366
S113272084E490E023E8FC01208385E490E023E046
S1132730FC01208380E890E021EAFC01208381E809
S113274090E02BE0FC01208389E890E0FC011082FA
S113275088E890E0FC0110828BE890E0FC01108294
S11327608AE890E0FC01108280EB90E023E8FC0111
S1132770208381EB90E024E0FC01208380E291E05F
S113278021E8FC01208381E291E02BE0FC0120831D
S113279089E291E0FC01108288E291E0FC01108260
S11327A089819A81FC0182819381FC0182859385D0
S11327B00E94380589819A81FC0182819381FC0100
S11327C0848595850E94190989819A81FC018281F9
S11327D09381FC01868597850E94380589819A81B9
S11327E0FC0182819381FC01808991890E943805D2
S11327F089819A81FC0182819381FC018289938978
S11328000E94380589819A81FC0182819381FC01AF
S1132810848995890E94D50F89819A81FC018281DE
S11328209381FC01808191810E94D60689819A81DD
S1132830FC0182819381FC01828193810E94100BAF
S113284089819A81FC0182819381FC018481958133
S11328500E94D60689819A81FC0182819381FC01C0
S1132860868197810E94D60689819A81FC018281A2
S11328709381FC01808591850E94D60689819A8185
S1132880FC0182819381FC01868997890E94D3038C
S113289089819A81FC0182819381FC01808D918DD3
S11328A00E943A0189819A81FC0182819381FC0111
S11328B0828D938D0E94B60E89819A81FC0182815A
S11328C09381FC01848D958D0E94D21089819A8117
S11328D0FC0182819381FC018085918540E253E073
S11328E060E070E00E943A0700000F900F90DF91C3
S11328F0CF910895CF93DF9300D0CDB7DEB79A83FD
S1132900898381E00F900F90DF91CF910895CF9349
S1132910DF9300D0CDB7DEB79A83898389819A810A
S1132920FC0182819381FC01808191810E94940841
S1132930982F81E08927882379F089819A81FC0185
S113294082819381FC018081918161E00E94A408CD
S1132950882311F081E001C080E00F900F90DF9197
S1132960CF910895CF93DF9300D0CDB7DEB79A838C
S1132970898389819A81FC0182819381FC0186810A
S113298097810E949408982F81E08927882379F001
S113299089819A81FC0182819381FC0186819781DE
S11329A062E00E94A408882311F081E001C080E065
S11329B00F900F90DF91CF910895CF93DF9300D0C4
S11329C000D0CDB7DEB79A8389837C836B838981FA
S11329D09A812B813C81B9010E94FF122DE632E0DD
S11329E089819A81FC013183208389819A81FC0148
S11329F0148289819A81FC01158200000F900F9046
S1132A000F900F90DF91CF9108950F93CF93DF93A1
S1132A1000D000D0CDB7DEB79A83898389819A81AB
S1132A20FC0182819381FC01868997890E942D048F
S1132A3089819A81FC01148289819A81FC01158221
S1132A4089819A81FC0182819381FC0186A197A1ED
S1132A50A0A5B1A529813A81F90122813381F90127
S1132A600190F081E02DFC83EB830FEF9C01AD011D
S1132A7061E08B819C810E945C0789819A81FC01C1
S1132A8082819381FC0186A197A1A0A5B1A529818A
S1132A903A81F90122813381F9010680F781E02D21
S1132AA0FC83EB830FEF9C01AD0160E08B819C8183
S1132AB00E945C0789819A81FC0182819381FC01D7
S1132AC086A197A1A0A5B1A529813A81F901228106
S1132AD03381F9010084F185E02DFC83EB830FEF52
S1132AE09C01AD0160E08B819C810E945C0789811F
S1132AF09A81FC0182819381FC01828193810E94ED
S1132B009A0C89819A81FC0182819381FC018481E0
S1132B1095810E94EA0700000F900F900F900F908C
S1132B20DF91CF910F910895EF920F931F93CF935D
S1132B30DF9300D000D0CDB7DEB79A838983898133
S1132B409A81FC01948181E08927882341F089815D
S1132B509A810E948714882311F081E001C080E0EB
S1132B60882321F189819A81FC0182819381FC016E
S1132B7086A197A1A0A5B1A529813A81F901228155
S1132B803381F9010280F381E02DFC83EB83EE2491
S1132B90EA948C019D0143E060E08B819C810E945A
S1132BA0740B89819A8121E0FC01248389819A81B3
S1132BB0FC01958181E08927882341F089819A81EC
S1132BC00E94B214882311F081E001C080E08823C0
S1132BD011F189819A81FC0182819381FC0186A192
S1132BE097A1A0A5B1A529813A81F9012281338158
S1132BF0F9010480F581E02DFC83EB830FEF9C0148
S1132C00AD0161E08B819C810E945C0789819A817E
S1132C1021E0FC01258300000F900F900F900F908E
S1132C20DF91CF911F910F91EF900895CF93DF9390
S1132C30CDB7DEB727970FB6F894DEBF0FBECDBF72
S1132C409F838E838E819F810E94871489838E81C6
S1132C509F81FC0182819381FC018281938163E0E5
S1132C600E94260E8A838E819F81FC01828193813A
S1132C70FC018481958161E00E94A4088B838E818C
S1132C809F810E94B2148C838E819F81FC0182817A
S1132C909381FC018085918562E00E94A4088D8364
S1132CA08981882371F08A81882359F08B81882354
S1132CB041F08C81882329F08D81882311F082E0F2
S1132CC001C08FEF27960FB6F894DEBF0FBECDBFBD
S1132CD0DF91CF910895CF93DF9300D000D0CDB78B
S1132CE0DEB79A8389837C836B8389819A812B8164
S1132CF03C81B9010E94FF1221E632E089819A8168
S1132D00FC013183208300000F900F900F900F90EF
S1132D10DF91CF910895CF93DF9300D0CDB7DEB785
S1132D209A83898389819A81FC0182819381FC0140
S1132D30868997890E94080489819A81FC0182818D
S1132D409381FC0110A200000F900F90DF91CF91AE
S1132D500895CF93DF9300D0CDB7DEB79A838983EC
S1132D6089819A81FC0182819381FC0184899589FE
S1132D700E94A510882311F083E001C08FEF0F900B
S1132D800F90DF91CF910895CF93DF9300D0CDB70B
S1132D90DEB79A83898389819A81FC018281938138
S1132DA0FC01168E89819A81FC01228133818981FB
S1132DB09A81FC0182819381FC0186A197A1A0A53F
S1132DC0B1A5F90182A393A3A4A3B5A389819A8190
S1132DD0FC0182819381FC01178E89819A81FC0117
S1132DE08281938121E0FC0120A389819A81FC01E5
S1132DF082819381FC01828D938D0E94570F89817A
S1132E009A81FC0182819381FC01868997890E94C1
S1132E102D0400000F900F90DF91CF910895CF9370
S1132E20DF9300D000D0CDB7DEB79A8389837C834B
S1132E306B8389819A812B813C81B9010E94FF12A5
S1132E4025E532E089819A81FC01318320838981DF
S1132E509A81FC01148289819A81FC0115828981FD
S1132E609A81FC01168217821086118600000F9049
S1132E700F900F900F90DF91CF9108950F93CF9300
S1132E80DF9300D000D0CDB7DEB79A8389838981E0
S1132E909A81FC01148289819A81FC01168217822D
S1132EA01086118689819A81FC0182819381FC01BB
S1132EB081A1882319F189819A8124E0FC01258369
S1132EC089819A81FC0182819381FC0186A197A169
S1132ED0A0A5B1A529813A81F90122813381F901A3
S1132EE00190F081E02DFC83EB830CEC9C01AD019F
S1132EF061E08B819C810E945C0721C089819A8159
S1132F00FC01158289819A81FC0182819381FC01F3
S1132F1086A197A1A0A5B1A529813A81F9012281B1
S1132F203381F9010680F781E02DFC83EB830CECFF
S1132F309C01AD0160E08B819C810E945C070000D4
S1132F400F900F900F900F90DF91CF910F910895F4
S1132F50EF92FF920F931F93CF93DF9300D000D093
S1132F60CDB7DEB79A83898389819A81FC018581F3
S1132F70882379F489819A81FC0182819381FC01FF
S1132F808681978162E00E94A408882311F081E081
S1132F9001C080E0882319F189819A81FC01828132
S1132FA09381FC0186A197A1A0A5B1A529813A81AD
S1132FB0F90122813381F9010480F581E02DFC833C
S1132FC0EB830FEF9C01AD0161E08B819C810E943A
S1132FD05C0789819A8121E0FC012583B8C089813D
S1132FE09A81FC018581813079F489819A81FC017F
S1132FF082819381FC018481958161E00E94A4080F
S1133000882311F081E001C080E0882319F18981CF
S11330109A81FC0182819381FC0186A197A1A0A5DC
S1133020B1A529813A81F90122813381F901068010
S1133030F781E02DFC83EB830CEC9C01AD0161E096
S11330408B819C810E945C0789819A8122E0FC012A
S113305025837DC089819A81FC018581823079F440
S113306089819A81FC0182819381FC018681978107
S113307061E00E94A408882311F081E001C080E08F
S1133080882319F189819A81FC0182819381FC0151
S113309086A197A1A0A5B1A529813A81F901228130
S11330A03381F9010480F581E02DFC83EB830FEF7C
S11330B09C01AD0160E08B819C810E945C07898149
S11330C09A8123E0FC01258342C089819A81FC0115
S11330D08581833079F489819A81FC01828193818D
S11330E0FC018481958162E00E94A408882311F088
S11330F081E001C080E0882351F189819A8124E034
S1133100FC01258389819A81FC018281938121E0DC
S1133110FC0121A389819A81FC0182819381FC01B4
S113312086A197A1A0A5B1A529813A81F90122819F
S11331303381F9010190F081E02DFC83EB830CECE9
S11331409C01AD0161E08B819C810E945C078981B7
S11331509A81FC018581843009F00FC189819A81AB
S1133160FC018481882379F489819A81FC0182811C
S11331709381FC018081918161E00E94A4088823ED
S113318011F081E001C080E0882309F462C08981E4
S11331909A81FC0182819381FC018281938163E0A5
S11331A00E94260E882319F189819A81FC0182816B
S11331B09381FC0186A197A1A0A5B1A529813A819B
S11331C0F90122813381F9010190F081E02DFC8322
S11331D0EB830CEC9C01AD0160E08B819C810E942F
S11331E05C0789819A8121E0FC012483C6C089811E
S11331F09A81FC0182819381FC01828193810E94E6
S1133200550E982F81E08927882309F4B6C0898157
S11332109A81FC0182819381FC0186A197A1A0A5DA
S1133220B1A529813A81F90122813381F901028012
S1133230F381E02DFC83EB830F2EFCECEF2EF02DBD
S11332408C019D0143E060E08B819C810E94060C0F
S113325094C089819A81FC018481813079F48981C7
S11332609A81FC0182819381FC018081918162E0D9
S11332700E94A408882311F081E001C080E0882323
S1133280B9F089819A81FC0182819381FC0186A134
S113329097A1A0A5B1A529813A81F90186839783D5
S11332A0A087B18789819A8122E0FC01248365C0CB
S11332B089819A81FC018481823009F041C089812D
S11332C09A81FC0182819381FC0126A137A140A54A
S11332D051A589819A81FC0186819781A085B18558
S11332E079018A01E81AF90A0A0B1B0BD801C701F4
S11332F0883E9340A105B10518F189819A81FC01AA
S113330082819381FC0186A197A1A0A5B1A5298101
S11333103A81F90122813381F9010190F081E02D94
S1133320FC83EB830CEC9C01AD0161E08B819C81FF
S11333300E945C0789819A8123E0FC0124831DC0DB
S113334089819A81FC018481833079F489819A810D
S1133350FC0182819381FC018081918161E00E9462
S1133360A408882311F081E001C080E0882329F0BB
S113337089819A8124E0FC01248300000F900F903E
S11333800F900F90DF91CF911F910F91FF90EF90CD
S11333900895CF93DF9300D0CDB7DEB79A838983A6
S11333A089819A81FC018481843041F489819A81E4
S11333B0FC018581843011F484E001C08FEF0F900B
S11333C00F90DF91CF910895CF93DF9300D000D079
S11333D0CDB7DEB79A8389837C836B8389819A8195
S11333E02B813C81B9010E94FF1229E432E08981DA
S11333F09A81FC013183208389819A8121E0FC0137
S1133400248300000F900F900F900F90DF91CF91C5
S11334100895EF920F931F93CF93DF9300D000D0C2
S1133420CDB7DEB79A83898389819A81FC01828131
S11334309381FC01868997890E94080489819A8175
S113344021E0FC01248389819A81FC01828193819A
S1133450FC0186A197A1A0A5B1A529813A81F90112
S113346022813381F9010280F381E02DFC83EB8317
S11334700F2EFCECEF2EF02D8C019D0141E061E05C
S11334808B819C810E94060C00000F900F900F907E
S11334900F90DF91CF911F910F91EF900895EF92CC
S11334A00F931F93CF93DF9300D000D0CDB7DEB737
S11334B09A83898389819A81FC0182819381FC01A9
S11334C0828193810E94550E982F81E08927882359
S11334D009F4B1C089819A81FC018481882309F4AB
S11334E055C089819A81FC0182819381FC0182818A
S11334F0938161E00E94260E882331F189819A81AB
S1133500FC01148289819A81FC0182819381FC01EE
S113351086A197A1A0A5B1A529813A81F9012281AB
S11335203381F9010280F381E02DFC83EB830F2EBC
S1133530FCECEF2EF02D8C019D0142E060E08B81CC
S11335409C810E94060C77C089819A81FC0182814A
S11335509381FC0186A197A1A0A5B1A529813A81F7
S1133560F90122813381F9010280F381E02DFC838A
S1133570EB830F2EFCECEF2EF02D8C019D0141E02E
S113358061E08B819C810E94060C55C089819A81DF
S1133590FC0182819381FC018281938162E00E941B
S11335A0260E882339F189819A8121E0FC01248344
S11335B089819A81FC0182819381FC0186A197A172
S11335C0A0A5B1A529813A81F90122813381F901AC
S11335D00280F381E02DFC83EB830F2EFCECEF2EB5
S11335E0F02D8C019D0141E061E08B819C810E9462
S11335F0060C21C089819A81FC0182819381FC019E
S113360086A197A1A0A5B1A529813A81F9012281BA
S11336103381F9010280F381E02DFC83EB830F2ECB
S1133620FCECEF2EF02D8C019D0142E060E08B81DB
S11336309C810E94060C00000F900F900F900F9039
S1133640DF91CF911F910F91EF900895CF93DF9366
S113365000D0CDB7DEB79A83898389819A81FC0132
S113366082819381FC01848995890E94A510882315
S113367011F085E001C08FEF0F900F90DF91CF9193
S11336800895CF93DF9300D0CDB7DEB79A838983B3
S113369089819A81FC0182819381FC0186899789C1
S11336A00E942D0489819A81FC0182819381FC010D
S11336B0828193810E949A0C00000F900F90DF91F9
S11336C0CF910895CF93DF9300D000D0CDB7DEB76C
S11336D09A8389837C836B8389819A812B813C8142
S11336E0B9010E94FF122DE332E089819A81FC0125
S11336F03183208389819A81FC0114821582168288
S1133700178289819A81FC01108600000F900F9026
S11337100F900F90DF91CF9108950F93CF93DF9384
S113372000D000D0CDB7DEB79A83898389819A818E
S1133730FC0182819381FC0186A197A1A0A5B1A57A
S113374029813A81F90184839583A683B78389818A
S11337509A81FC01108689819A81FC01828193817E
S1133760FC0111A289819A81FC0182819381FC016F
S113377086A197A1A0A5B1A529813A81F901228149
S11337803381F9010680F781E02DFC83EB830CEC97
S11337909C01AD0160E08B819C810E945C0700006C
S11337A00F900F900F900F90DF91CF910F9108958C
S11337B0EF92FF920F931F93CF93DF9300D000D02B
S11337C0CDB7DEB79A83898389819A81FC0182818E
S11337D09381FC0126A137A140A551A589819A8135
S11337E0FC0184819581A681B78179018A01E81A57
S11337F0F90A0A0B1B0BD801C701883B9B40A105A2
S1133800B10508F44CC089819A81FC01908581E05E
S11338108927882309F443C089819A81FC01828124
S11338209381FC018281938163E00E94260E8823A8
S113383031F089819A8121E0FC01208730C089819F
S11338409A81FC0182819381FC01828193810E948F
S1133850550E982F81E08927882309F189819A815F
S1133860FC0182819381FC0186A197A1A0A5B1A549
S113387029813A81F90122813381F9010280F3819E
S1133880E02DFC83EB830F2EFCECEF2EF02D8C014E
S11338909D0143E060E08B819C810E94740B0000D9
S11338A00F900F900F900F90DF91CF911F910F9178
S11338B0FF90EF900895EF92FF920F931F93CF9391
S11338C0DF9300D0CDB7DEB79A83898389819A814B
S11338D0FC0182819381FC0126A137A140A551A559
S11338E089819A81FC0184819581A681B7817901BE
S11338F08A01E81AF90A0A0B1B0BD801C701883898
S11339009341A105B105A8F089819A81FC018085C4
S1133910882379F089819A81FC0182819381FC0159
S11339208681978162E00E94A408882311F081E0D7
S113393001C080E0882311F086E001C08FEF0F9072
S11339400F90DF91CF911F910F91FF90EF90089509
S1133950CF93DF9300D0CDB7DEB79A838983898173
S11339609A81FC0182819381FC01828D938D0E9456
S1133970470F482F89819A81FC0182819381298193
S11339803A81F90122813381F901268D240FFC014A
S1133990268F89819A81FC0182819381FC01268D85
S11339A089819A81FC0182819381FC01808D918DB2
S11339B0622F0E949D0289819A81FC0182819381F8
S11339C0FC01828D938D0E94570F00000F900F9081
S11339D0DF91CF910895CF93DF9300D000D0CDB77E
S11339E0DEB79A8389837C836B8389819A812B8157
S11339F03C81B9010E94FF1221E332E089819A815E
S1133A00FC013183208389819A81FC01148289819C
S1133A109A81FC01158200000F900F900F900F9077
S1133A20DF91CF9108950F93CF93DF9300D000D00F
S1133A30CDB7DEB79A83898389819A81FC01148288
S1133A4089819A81FC01158289819A81FC01828194
S1133A509381FC0186A197A1A0A5B1A529813A81F2
S1133A60F90122813381F9010084F185E02DFC8381
S1133A70EB830FEF9C01AD0161E08B819C810E947F
S1133A805C0789819A81FC0182819381FC01978D75
S1133A9081E089278823E9F089819A81FC01828168
S1133AA09381FC0186A197A1A0A5B1A529813A81A2
S1133AB0F90122813381F9010680F781E02DFC832D
S1133AC0EB830CEC9C01AD0160E08B819C810E9436
S1133AD05C0700000F900F900F900F90DF91CF9133
S1133AE00F9108950F93CF93DF9300D000D0CDB7FB
S1133AF0DEB79A83898389819A81FC0182819381CB
S1133B00FC01978D81E08927882309F410C18981FC
S1133B109A81FC018481882379F489819A81FC014A
S1133B2082819381FC018085918561E00E94A408D3
S1133B30882311F081E001C080E0882311F189819C
S1133B409A81FC0182819381FC0186A197A1A0A5A1
S1133B50B1A529813A81F90122813381F9010084D7
S1133B60F185E02DFC83EB830FEF9C01AD0160E058
S1133B708B819C810E945C0789819A8121E0FC01F0
S1133B80248389819A81FC018581882379F4898140
S1133B909A81FC0182819381FC018681978162E094
S1133BA00E94A408882311F081E001C080E08823EA
S1133BB019F189819A81FC0182819381FC0186A19A
S1133BC097A1A0A5B1A529813A81F9012281338168
S1133BD0F9010480F581E02DFC83EB830FEF9C0158
S1133BE0AD0161E08B819C810E945C0789819A818F
S1133BF021E0FC0125839BC089819A81FC01858198
S1133C00813079F489819A81FC0182819381FC015C
S1133C108481958161E00E94A408882311F081E0E9
S1133C2001C080E0882319F189819A81FC01828195
S1133C309381FC0186A197A1A0A5B1A529813A8110
S1133C40F90122813381F9010680F781E02DFC839B
S1133C50EB830CEC9C01AD0161E08B819C810E94A3
S1133C605C0789819A8122E0FC01258360C08981F7
S1133C709A81FC018581823079F489819A81FC01E1
S1133C8082819381FC018681978161E00E94A4086E
S1133C90882311F081E001C080E0882319F1898133
S1133CA09A81FC0182819381FC0186A197A1A0A540
S1133CB0B1A529813A81F90122813381F901048076
S1133CC0F581E02DFC83EB830FEF9C01AD0160E0F7
S1133CD08B819C810E945C0789819A8123E0FC018D
S1133CE0258325C089819A81FC018581833079F4FB
S1133CF089819A81FC0182819381FC01848195816F
S1133D0062E00E94A408882311F081E001C080E0F1
S1133D10882369F089819A8124E0FC0125838981C3
S1133D209A81FC018281938121E0FC0121A300009E
S1133D300F900F900F900F90DF91CF910F910895F6
S1133D40CF93DF9300D0CDB7DEB79A83898389817F
S1133D509A81FC0182819381FC01978D81E08927FE
S1133D60882301F189819A81FC0184818130A9F43D
S1133D7089819A81FC0182819381FC0180859185EE
S1133D8062E00E94A408882341F089819A81FC01A1
S1133D908581843011F481E001C080E0882389F0BA
S1133DA083E010C089819A81FC0182819381FC01A6
S1133DB08085918561E00E94A408882311F082E047
S1133DC001C08FEF0F900F90DF91CF910895CF93A3
S1133DD0DF9300D0CDB7DEB79A83898389819A8136
S1133DE00E946B1129813A8189819A818B96B9014C
S1133DF00E94531329813A8189819A818F96B9014E
S1133E000E94DD1429813A8189819A81C596B9017C
S1133E100E946B1629813A8189819A81C996B901D8
S1133E200E940F1729813A8189819A818D5B9F4F66
S1133E30B9010E94E41929813A8189819A81885BB8
S1133E409F4FB9010E94621B29813A8189819A811D
S1133E508F5A9F4FB9010E94EB1C89819A819C0162
S1133E60255D3F4F89819A81895A9F4FFC01318397
S1133E70208389819A819C01215D3F4F89819A81A8
S1133E80875A9F4FFC013183208389819A819C0149
S1133E902B5C3F4F89819A81855A9F4FFC01318366
S1133EA0208389819A819C01275C3F4F89819A8173
S1133EB0835A9F4FFC013183208389819A819C011D
S1133EC02D5B3F4F89819A81815A9F4FFC01318339
S1133ED0208389819A819C01285B3F4F89819A8143
S1133EE08F599F4FFC013183208389819A819C01E2
S1133EF02F5A3F4F89819A818D599F4FFC013183FD
S1133F00208300000F900F90DF91CF910895CF93FD
S1133F10DF9300D000D01F92CDB7DEB79D838C8392
S1133F208C819D810E94BF118C819D810E94AF1163
S1133F30882F90E02C813D81880F991F820F931F59
S1133F40895A9F4FFC01808191819A838983898159
S1133F509A81FC0180819181FC01208131818981D8
S1133F609A81F90109958B838B818F3F51F08C8164
S1133F709D810E94AF11982F8B81981711F081E0D9
S1133F8001C080E0882369F189819A81FC018081E4
S1133F9091810696FC012081318189819A81F90100
S1133FA009958C819D816B810E949A118C819D81E0
S1133FB00E94AF11882F90E02C813D81880F991FBA
S1133FC0820F931F895A9F4FFC0180819181FC01CC
S1133FD0208131812E5F3F4FF90120813181F90128
S1133FE009958C819D810E94AF11882F90E02C81CE
S1133FF03D81880F991F820F931F895A9F4FFC019F
S113400080819181FC01208131812C5F3F4FF90136
S113401020813181F901099500000F900F900F90D4
S11340200F900F90DF91CF910895CF93DF9300D03D
S1134030CDB7DEB79A83898389819A810E94AF11B3
S1134040882F90E029813A81880F991F820F931F4E
S1134050895A9F4FFC0180819181FC01208131812B
S11340602E5F3F4FF90120813181F9010995898142
S11340709A810E94871FFBCFCF93DF9300D0CDB7E7
S1134080DEB79A83898389819A810F900F90DF919B
S1134090CF9108951F920F9200905F000F92112408
S11340A02F933F934F935F936F937F938F939F933C
S11340B0AF93BF93EF93FF93CF93DF93CDB7DEB767
S11340C080918E0290918F02892B31F080918E0223
S11340D090918F020E94E70E0000DF91CF91FF9133
S11340E0EF91BF91AF919F918F917F916F915F916C
S11340F04F913F912F910F9000925F000F901F906E
S113410018951F920F9200905F000F9211242F9325
S11341103F934F935F936F937F938F939F93AF934B
S1134120BF93EF93FF93CF93DF93CDB7DEB7809127
S1134130900290919102892B31F08091900290919C
S113414091020E941C110000DF91CF91FF91EF9129
S1134150BF91AF919F918F917F916F915F914F919B
S11341603F912F910F9000925F000F901F90189530
S11341708F929F92AF92BF92CF92EF92FF920F9342
S11341801F93CF93DF93CDB7DEB7C45BD1400FB697
S1134190F894DEBF0FBECDBFCE01039600E427E046
S11341A031E048E051E066E071E00E94EC04CE01A9
S11341B0419600E827E031E048E051E066E071E034
S11341C00E94C508CE01819601E02AE230E04BE26C
S11341D050E069E270E00E94EC04CE018F9602E0A8
S11341E02AE230E04BE250E069E270E00E94EC0425
S11341F0CE01CD9604E02AE230E04BE250E069E2E1
S113420070E00E94EC04CE01855B9F4F08E02AE237
S113421030E04BE250E069E270E00E946D0F9E01D5
S11342202D5F3F4FCE01875A9F4F49010F2EF3EB6D
S1134230AF2EB12CF02D6894CC24C4F80F2EF4E2E8
S1134240EF2EF12CF02D05E210E021E044E250E0E5
S113425065E270E00E9449069E012F5E3F4FCE0149
S11342608D589F4F49010F2EF8E8AF2EB12CF02D39
S11342706894CC24C5F80F2EF4E2EF2EF12CF02D27
S113428005E210E022E044E250E065E270E00E94C2
S11342907F0A9E012F5D3F4FCE0181579F4F4901F9
S11342A00F2EFAE8AF2EB12CF02D6894CC24C6F86A
S11342B00F2EF4E2EF2EF12CF02D05E210E024E0B5
S11342C044E250E065E270E00E9449069E01215DEF
S11342D03F4FCE0187559F4F49010F2EF7E4AF2E74
S11342E0B12CF02D6894CC24C7F80F2EF4E2EF2EF5
S11342F0F12CF02D05E210E028E044E250E065E204
S113430070E00E9449069E01235C3F4FCE018D530D
S11343109F4F49010F2EF8E2AF2EBB24B394F02D2A
S11343206894CC24C3F80F2EFAE0EF2EFF24F39404
S1134330F02D0BE011E020E14AE250E06BE270E086
S11343400E944906CE0183529F4F2EE0EAE0F2E03C
S1134350DC0101900D922A95E1F7CE0185519F4F22
S11343602EE0E8E1F2E0DC0101900D922A95E1F7FC
S1134370CE0187509F4F27E0E6E2F2E0DC01019096
S11343800D922A95E1F79E0127503F4FAE0145510A
S11343905F4FBE0163527F4FCE0193956894CC2446
S11343A0C7F80F2EFAE0EF2EFF24F394F02D0BE064
S11343B011E00E949100CE01845C9E4F20E84AE205
S11343C050E06BE270E00E948F03CE01865B9E4F4B
S11343D00E94A00ECE01845B9E4F0E94BE10CE01AF
S11343E0865B9E4F90938F0280938E02CE01845BF6
S11343F09E4F9093910280939002CE01805B9E4FDA
S11344000E94E71ECE01805B9E4F0E943C209A834F
S1134410898389819A819E01275A3F4FFC01318308
S1134420208389819A819E012D583F4FFC0133835B
S1134430228389819A819E0121573F4FFC01358354
S1134440248389819A819E0127553F4FFC0137833C
S1134450268389819A819E012D533F4FFC01318728
S1134460208789819A819E012D5F3F4FFC0133870C
S1134470228789819A819E012F5E3F4FFC013587F7
S1134480248789819A819E012F5D3F4FFC013787E4
S1134490268789819A819E01215D3F4FFC01318BE2
S11344A0208B89819A819E01235C3F4FFC01338BD1
S11344B0228B89819A819E01255B3F4FFC01358BBC
S11344C0248B89819A819E01245C3E4FFC01378BA9
S11344D0268B89819A819E013395FC01318F208F2F
S11344E089819A819E01265B3E4FFC01338F228F86
S11344F089819A819E01245B3E4FFC01358F248F74
S11345007894CE01805B9E4F0E94152080E090E05D
S1134510CC54DE4F0FB6F894DEBF0FBECDBFDF9193
S1134520CF911F910F91FF90EF90CF90BF90AF90DC
S11345309F908F900895A1E21A2EAA1BBB1BFD0128
S11345400DC0AA1FBB1FEE1FFF1FA217B307E4076E
S1134550F50720F0A21BB30BE40BF50B661F771FC6
S1134560881F991F1A9469F76095709580959095A6
S11145709B01AC01BD01CF010895F894FFCF6B
S113457E3F065B4F666D7D077F6F0B010B010B01D1
S113458E2B000B010B010B010A010A010A012A007F
S113459E0A010A010A010102044010204000000031
S11345AE00A01E131D721D4613000000005B1C8D1F
S11345BE1BD81BA81C00000000261B091A4F1A4109
S11345CE1B00000000C9193E17A81746130000006F
S11345DE00A9168B163913C4160000000016160512
S11345EE1594154613000000007A147313391346FC
S11145FE13000000001F132C13391346130082
S9030000FC
