:100000000C9472000C948F000C948F000C948F0051
:100010000C948F000C948F000C948F000C948F0024
:100020000C948F000C948F000C948F000C94641629
:100030000C948F000C948F000C948F000C948F0004
:100040000C948F000C948F000C948F000C948F00F4
:100050000C948F000C948F000C948F000C948F00E4
:100060000C948F000C948F000C948F000C948F00D4
:100070000C948F000C948F000C948F000C948F00C4
:100080000C948F000C948F000C948F000C948F00B4
:100090000C948F000C948F000C948F000C948F00A4
:1000A0000C948F000C948F000C94B1160C948F005C
:1000B0000C948F000C948F000C948F000C948F0084
:1000C0000C948F000C948F000C948F000C948F0074
:1000D0000C948F000C948F000C948F000C948F0064
:1000E0000C948F0011241FBECFEFD1E2DEBFCDBF35
:1000F00012E0A0E0B2E0E2E1F6E302C005900D926A
:10010000A238B107D9F722E0A2E8B2E001C01D92FF
:10011000A638B207E1F70E94D8160C94071B0C947E
:1001200000000895089581E00895DC011296ED9194
:10013000FC911397A285B38517968C91A485B585FC
:1001400017969C91A685B78517962C91A089B189A1
:1001500017963C910288F389E02D4781813051F454
:10016000923051F4213051F4313051F4423051F099
:100170008FEF08958FEF08958FEF08958FEF089513
:100180008FEF089582E00895CF93DF93DC011296FC
:10019000ED91FC9113970688F789E02D81E0858722
:1001A000C081D18188819481982B98831296ED919A
:1001B000FC91139710A2DF91CF910895DC01129664
:1001C000ED91FC9113970488F589E02D81898111C7
:1001D000118A882311F083E008958FEF0895FC01C0
:1001E000A281B3815E961C92A281B38195964D91B6
:1001F0005D916D917C91989791964D935D936D93E0
:100200007C939497A281B3815F961C92A281B38163
:1002100081E090968C93A281B3815A960D90BC9107
:10022000A02D8FE38C9311961C920280F381E02D18
:100230000688F789E02D1586A081B1819C91848183
:10024000809589238C930895FC012481243029F41E
:100250008581843021F08FEF08958FEF089584E039
:100260000895DC011296ED91FC9113970488F589AD
:10027000E02D81898111118A882311F085E008958C
:100280008FEF0895CF93DF93DC011296ED91FC91EF
:1002900013970688F789E02D1586C081D1812881C2
:1002A00094819095922398831296ED91FC911397E7
:1002B0000280F381E02DA285B3851C92A581B681D1
:1002C0009C918185809589238C931686DF91CF91AF
:1002D0000895FC01A281B38195964D915D916D9138
:1002E0007C91989784819581A681B781481B590B91
:1002F0006A0B7B0B483853416105710540F08185DD
:10030000882339F08085843031F08FEF08958FEFA6
:1003100008958FEF089586E00895CF93DF93FC0151
:10032000A281B3815A96CD91DC915B9789815E96CB
:100330009C915E97890F5E968C93A281B3815E96A5
:100340008C915E9758960D90BC91A02D843608F044
:1003500083E698968C930280F381E02D028CF38DD6
:10036000E02D8FE380831182DF91CF910895DC012E
:1003700014962C911497243049F41296ED91FC9127
:100380001397878D882321F082E008958FEF0895D9
:1003900083E00895CF93DF93FC01A281B3811A9685
:1003A0000D90BC91A02D1496CD91DC91159798815C
:1003B00016968C9116978095892388831296CD91F5
:1003C000DC911397988116968C91892B8883A28152
:1003D000B3811C960D90BC91A02D1496CD91DC910B
:1003E0001597988116968C91169780958923888306
:1003F0001296CD91DC911397988116968C91892B4A
:100400008883A281B3811E960D90BC91A02D149675
:10041000CD91DC911597988116968C9116978095C1
:10042000892388831296CD91DC9113979881169633
:100430008C91892B8883A281B38150960D90BC91B9
:10044000A02D1496CD91DC911597988116968C91DC
:1004500016978095892388831296CD91DC91139706
:10046000988116968C91892B8883A281B3815296AC
:100470000D90BC91A02D1496CD91DC91159798818B
:1004800016968C9116978095892388831296CD9124
:10049000DC911397988116968C91892B8883A28181
:1004A000B38154960D90BC91A02D1496CD91DC9102
:1004B0001597988116968C91169780958923888335
:1004C0001296CD91DC911397988116968C91892B79
:1004D0008883A281B3810D90BC91A02D1296CD91FD
:1004E000DC911397988114968C911497892B8883AB
:1004F0001796CD91DC911897988119968C91199740
:10050000892B8883CD91DC911197988114968C91D9
:1005100014978095892388831596CD91DC91169741
:10052000988119968C9119978095892388831A96BA
:100530000D90BC91A02D1C92A281B38112960D90BA
:10054000BC91A02D1296CD91DC91139798811496B1
:100550008C911497892B88831796CD91DC911897ED
:10056000988119968C911997892B8883CD91DC916C
:100570001197988114968C9114978095892388837C
:100580001596CD91DC911697988119968C911997B3
:100590008095892388831A960D90BC91A02D1C927A
:1005A000A281B38114960D90BC91A02D1296CD918D
:1005B000DC911397988114968C911497892B8883DA
:1005C0001796CD91DC911897988119968C9119976F
:1005D000892B8883CD91DC911197988114968C9109
:1005E00014978095892388831596CD91DC91169771
:1005F000988119968C9119978095892388831A96EA
:100600000D90BC91A02D1C92A281B38116960D90E5
:10061000BC91A02D1296CD91DC91139798811496E0
:100620008C911497892B88831796CD91DC9118971C
:10063000988119968C911997892B8883CD91DC919B
:100640001197988114968C911497809589238883AB
:100650001596CD91DC911697988119968C911997E2
:100660008095892388831A960D90BC91A02D1C92A9
:10067000A281B38118960D90BC91A02D1296CD91B8
:10068000DC911397988114968C911497892B888309
:100690001796CD91DC911897988119968C9119979E
:1006A000892B8883CD91DC911197988114968C9138
:1006B00014978095892388831596CD91DC911697A0
:1006C000988119968C9119978095892388831A9619
:1006D0000D90BC91A02D1C92A281B38156960D90D5
:1006E000BC91A02D1296CD91DC9113979881149610
:1006F0008C911497892B8883CD91DC9111979881E7
:1007000014968C918095892388830280F381E02D53
:10071000A08DB18D20E0273008F5822F90E0FC01FC
:100720003796EE0FFF1FEA0FFB1F0190F081E02DBF
:100730004081ED01C80FD91F3C8D342B3083880FC9
:10074000991FFD01E80FF91F0190F081E02D9081C4
:100750008C8D8095892380832F5FDDCF9596ED91D9
:10076000FC919697908197968C919797892B80838F
:100770009396ED91FC919497908197968C918095AA
:1007800089238083E7E0F1E08081807C8083E8E05A
:10079000F1E080818F638083E8E6F0E0808184600F
:1007A0008083EDE6F0E080818F638083E0EAF0E013
:1007B00080818C7F8083E1EAF0E080818F7E80837E
:1007C00080818860808380818360808380818B7F4B
:1007D00080838CE790E09093A9008093A800E2E7E3
:1007E000F0E080818260808384B5836884BD85B5B4
:1007F000836085BDE0E8F0E08081816A8083E1E884
:10080000F0E080818B608083E0EBF0E080818368A2
:100810008083E1EBF0E0808184608083E0E2F1E0BE
:10082000808181688083E1E2F1E080818B60808358
:10083000DF91CF910895CF93DF93FC01148215824D
:100840001682178210860280F381E02D45A156A101
:1008500067A170A50084F185E02DA485B58510976A
:10086000C9F017968C911797813009F43FC0811118
:1008700002C090E001C091E017961C92179718965D
:100880001C92A485B58581E019968C9319971896CA
:100890001C9201C090E0A081B1812C918481822BB7
:1008A0008C93A285B3858CEC8C9381E08687911123
:1008B0000EC0A485B585109761F0CD91DC9111979C
:1008C000988116968C91892331F080E005C081E0F3
:1008D00003C080E001C081E0882339F081E0878790
:1008E000408B518B628B738B01C01786DF91CF9148
:1008F0000895CF93DF93FC01A281B38195964D912A
:100900005D916D917C91989744835583668377833D
:100910001086118695964D915D916D917C91989779
:100920001696ED91FC911797A485B5851097C9F09F
:1009300017968C911797813009F43FC0811102C03E
:1009400090E001C091E017961C92179718961C92A0
:10095000A485B58581E019968C93199718961C92F9
:1009600001C090E0A081B1812C918481822B8C9375
:10097000A285B3858CEC8C9381E0868791110EC0A3
:10098000A485B585109761F0CD91DC911197988180
:1009900016968C91892331F080E005C081E003C078
:1009A00080E001C081E0882339F081E08787408BB7
:1009B000518B628B738B01C01786DF91CF910895A5
:1009C000CF93DF93DC0114961C92149715961C921A
:1009D000159716961D921D921D921C9219971296AC
:1009E000ED91FC91139745A156A167A170A50190C7
:1009F000F081E02DC485D585209781F08F818130ED
:100A0000D9F1811102C090E001C091E01F821886E7
:100A1000C485D58581E08987188601C090E0C081B2
:100A2000D18128818481822B8883C285D3858CECF7
:100A3000888381E08687911110C024853585211532
:100A4000310569F0E90188819981EC019881E9011A
:100A50008E81892331F080E005C081E003C080E011
:100A600001C081E0882339F081E08787408B518B7A
:100A7000628B738B01C017861296ED91FC911397D0
:100A800045A156A167A170A50680F781E02DA48538
:100A9000B5851097C9F017968C911797813009F496
:100AA0003FC0811102C090E001C091E017961C92F6
:100AB000179718961C92A485B58581E019968C939A
:100AC000199718961C9201C090E0A081B1812C91D9
:100AD0008481822B8C93A285B3858CEC8C9381E0EE
:100AE000868791110EC0A485B585109761F0CD91D0
:100AF000DC911197988116968C91892331F080E0D2
:100B000005C081E003C080E001C081E0882339F0A6
:100B100081E08787408B518B628B738B01C0178676
:100B2000DF91CF910895CF93DF93FC01A281B38130
:100B300056960D90BC91A02D81E01D968C931D972B
:100B4000CD91DC911197988114968C91892B888393
:100B500014820280F381E02D45A156A167A170A502
:100B60000280F381E02DA485B585109769F1179671
:100B70008C911797813009F453C0811102C090E025
:100B800001C091E081E01A968C931A9719961C92F5
:100B9000199717968C911797823029F483E018964D
:100BA0008C9318970EC017968C911797833029F461
:100BB00081E018968C93189704C081E018968C9366
:100BC000189717961C9201C090E0A081B1812C91DA
:100BD0008481822B8C93A285B3858CEC8C9381E0ED
:100BE000868791110EC0A485B585109761F0CD91CF
:100BF000DC911197988116968C91892331F080E0D1
:100C000005C081E003C080E001C081E0882339F0A5
:100C100081E08787408B518B628B738B01C0178675
:100C2000DF91CF910895CF93DF93EC01EA81FB81AF
:100C300045A156A167A170A50190F081E02DA48582
:100C4000B5851097C9F017968C911797813009F4E4
:100C500042C0811102C090E001C091E017961C9241
:100C6000179718961C92A485B58581E019968C93E8
:100C7000199718961C9201C090E0A081B1812C9127
:100C80008481822B8C93A285B3858CEC8C9381E03C
:100C90008687911111C0248535852115310571F0A4
:100CA000D9018D919C91DC019C91D90116968C9172
:100CB000892331F080E005C081E003C080E001C0FD
:100CC00081E0882339F081E08787408B518B628BEC
:100CD000738B01C017868685882321F0A285B38592
:100CE00089E98C9381E0808F118E868F428F538F9C
:100CF000648F758FEA81FB8145A156A167A170A51C
:100D00000680F781E02DA485B5851097C9F0179668
:100D10008C911797813009F442C0811102C090E094
:100D200001C091E017961C92179718961C92A48503
:100D3000B58581E019968C93199718961C9201C07D
:100D400090E0A081B1812C918481822B8C93A2852B
:100D5000B3858CEC8C9381E08687911111C024853A
:100D600035852115310571F0D9018D919C91DC01FA
:100D70009C91D90116968C91892331F080E005C0B1
:100D800081E003C080E001C081E0882339F081E088
:100D90008787408B518B628B738B01C0178686854A
:100DA000882321F0A285B38589E98C9381E0808F27
:100DB000118E868F428F538F648F758FEA81FB81EE
:100DC00045A156A167A170A50084F185E02DA485F9
:100DD000B5851097C1F017968C911797823009F45A
:100DE0003FC0811102C020E001C021E017961C9293
:100DF000179718961C92A485B58519961C92199779
:100E000018961C9201C020E0A081B1819C91848140
:100E1000809589238C93A285B3858CEC8C9381E09B
:100E2000868721110EC0A485B585109761F0CD91FC
:100E3000DC911197988116968C91892331F080E08E
:100E400005C081E003C080E001C081E0882339F063
:100E500081E08787408B518B628B738B01C0178633
:100E60008685882321F0A285B38589E98C9381E06A
:100E7000808F118E168E428F538F648F758FDF9106
:100E8000CF9108950F931F93CF93DF938C01DC01D3
:100E90001296ED91FC911397C081D1819E8591119D
:100EA00007C0C285D3858F81813019F491E001C0DC
:100EB00090E0992309F46DC0C281D3818E858111A0
:100EC00008C024853585D90117962C91223021F44C
:100ED00002C090E001C0982F992309F45AC045A19F
:100EE00056A167A170A5EC85FD853097D9F0878163
:100EF000823009F43FC0811102C030E001C031E00E
:100F0000128611868781813019F483E0808708C0BA
:100F10008781833019F482E0808702C082E0808775
:100F2000178201C030E0E881F98120818C818095B1
:100F300082238083EA85FB858CEC808381E08E8729
:100F400031110EC0EC85FD85309749F0208131814B
:100F5000D9012C918681822319F090E001C090E0A4
:100F6000992339F081E08F87488B598B6A8B7B8B73
:100F700001C01F868E85882321F0EA85FB8589E9DB
:100F8000808381E0888F198E1E8E4A8F5B8F6C8FD5
:100F90007D8FF801A281B3811696ED91FC91179790
:100FA0008685811109C05096ED91FC9151979781EA
:100FB000913019F481E001C080E0882309F46EC00B
:100FC0001496ED91FC9115979685911108C01E9687
:100FD000CD91DC911F972F81213021F402C080E058
:100FE00001C0892F882309F459C095964D915D91D0
:100FF0006D917C919897A485B5851097C1F017964F
:101000009C9117979130D9F1911102C020E001C055
:1010100021E017961C92179718961C92A485B58507
:1010200091E019969C93199718961C9201C020E0A4
:10103000A081B1813C919481932B9C93A285B3852F
:101040009CEC9C9391E0968721110FC0A485B585F7
:10105000109751F0CD91DC911197288116969C91B3
:10106000922319F080E001C080E0882339F081E00C
:101070008787408B518B628B738B01C01786868567
:10108000882321F0A285B38589E98C9381E0808F44
:10109000118E868F428F538F648F758FDF91CF9122
:1010A0001F910F910895CF92DF92EF92FF92CF930D
:1010B000DF93EC01AA81BB811296ED91FC9113970D
:1010C000268521119EC13C813111D0C01C96CD9145
:1010D000DC911D972F81213009F067C0FC0124832A
:1010E00095964D915D916D917C9198971296ED91A9
:1010F000FC911397A485B585109761F117968C9193
:101100001797823009F47DC1811102C020E001C02F
:1011100021E01A961C921A9719961C921997179605
:101120008C911797813029F483E018968C93189747
:101130000EC017968C911797833029F482E0189689
:101140008C93189704C082E018968C931897179682
:101150001C9201C020E0A081B1819C918481809586
:1011600089238C93A285B3858CEC8C9381E0868750
:1011700021110DC0A485B585109761F0CD91DC914A
:101180001197988116968C91892319F003C031E04C
:1011900001C031E0332339F081E08787408B518BE8
:1011A000628B738B2EC117862CC195964D915D91E4
:1011B0006D917C919897A485B585109769F11796E4
:1011C0008C911797813009F41CC1811102C020E075
:1011D00001C021E081E01A968C931A9719961C920F
:1011E000199717968C911797823029F483E01896F7
:1011F0008C9318970EC017968C911797833029F40B
:1012000081E018968C93189704C081E018968C930F
:10121000189717961C9201C020E0A081B1819C9183
:101220008481892B8C93A285B3858CEC8C9381E08F
:10123000868721110DC0A485B585109761F0CD91E9
:10124000DC911197988116968C91892319F003C02F
:1012500031E001C031E0332339F081E08787408BF2
:10126000518B628B738BCDC01786CBC01C96CD91F2
:10127000DC911D978F81813009F060C09596CD90EB
:10128000DD90ED90FC909897A485B585109761F15D
:1012900017968C911797823009F4B3C0811102C060
:1012A00040E001C041E01A961C921A9719961C92D0
:1012B000199717968C911797813029F483E0189627
:1012C0008C9318970EC017968C911797833029F43A
:1012D00082E018968C93189704C082E018968C933D
:1012E000189717961C9201C040E0A081B1819C9193
:1012F0008481809589238C93A285B3858CEC8C9313
:1013000081E0868741110FC0A485B585109751F003
:10131000CD91DC911197988116968C91892319F0C3
:10132000322F01C0322F332339F081E08787C08A02
:10133000D18AE28AF38A65C0178663C08F818330C1
:1013400009F05FC09596CD90DD90ED90FC90989758
:10135000A485B585109769F117968C911797813000
:1013600009F44FC0811102C040E001C041E081E0BA
:101370001A968C931A9719961C92199717968C9116
:101380001797823029F483E018968C9318970EC033
:1013900017968C911797833029F481E018968C93D7
:1013A000189704C081E018968C93189717961C9292
:1013B00001C040E0A081B1819C918481892B8C93F4
:1013C000A285B3858CEC8C9381E0868741110FC098
:1013D000A485B585109751F0CD91DC911197988136
:1013E00016968C91892319F0322F01C0322F3323A6
:1013F00039F081E08787C08AD18AE28AF38A01C006
:101400001786DF91CF91FF90EF90DF90CF900895F6
:10141000CF92DF92EF92FF920F931F93CF93DF93C0
:10142000FC01848181110BC0A281B38152960D9081
:10143000BC91A02D17969C91913019F403C090E0B7
:1014400001C090E0992379F0A281B38195968D91A6
:101450009D910D90BC91A02D85839683A783B08725
:1014600081E08483ADC0813009F073C0A281B38173
:1014700095964D915D916D917C919897058116811E
:10148000278130856A017B01C01AD10AE20AF30A7A
:10149000C8EECC16C3E0DC06E104F10408F459C040
:1014A00018960D90BC91A02D1C96CD91DC911D97A6
:1014B000209791F08F81823009F448C0811102C0D9
:1014C00030E001C031E01F8218861C96CD91DC917E
:1014D0001D971986188601C030E0CD91DC911197D7
:1014E000288114968C9114978095822388831A966C
:1014F000CD91DC911B978CEC888381E01E968C93B8
:101500001E97311111C01C960D911C911D9701154C
:10151000110569F0E80128813981E9012881E80194
:101520008E81822319F003C091E001C091E09923DC
:1015300059F081E01F968C931F9750964D935D93C1
:101540006D937C93539702C01F961C9282E0848314
:1015500037C0823059F4A281B38152960D90BC916C
:10156000A02D17962C91223009F491E0992379F05F
:10157000A281B38195968D919D910D90BC91A02DE6
:1015800085839683A783B08783E0848319C08330E3
:10159000B9F4A281B38195968D919D910D90BC91E6
:1015A000A02D4581568167817085841B950BA60B04
:1015B000B70B803D9740A105B10510F084E084830E
:1015C000DF91CF911F910F91FF90EF90DF90CF901F
:1015D0000895CF92DF92EF92FF920F931F93CF93D4
:1015E000DF93FC01948191110BC0A281B3811A9603
:1015F0000D90BC91A02D17968C91813019F403C0E9
:1016000080E001C080E0882309F4D1C0A281B381C9
:101610001C96CD91DC911D979F81923009F05DC0A1
:1016200095964D915D916D917C9198970D90BC919F
:10163000A02D1C96CD91DC911D97209791F09F8154
:10164000923009F447C0911102C030E001C031E08E
:101650001F8218861C96CD91DC911D9719861886DD
:1016600001C030E0CD91DC911197288114969C91B6
:1016700014979095922398831A96CD91DC911B979D
:101680009CEC988391E01E969C931E97311113C099
:101690001C96ED90FC901D97E114F10459F0E701C0
:1016A00028813981E9012881E7019E81922319F07F
:1016B00080E001C080E0882359F081E01F968C9380
:1016C0001F9750964D935D936D937C93539702C0F3
:1016D0001F961C9281E0848310C11296CD91DC91FB
:1016E00013979E85911109C19596CD90DD90ED904F
:1016F000FC909897AC85BD85109761F117962C9159
:101700001797223009F4F9C0211102C040E001C04E
:1017100041E01A961C921A9719961C9219971796DF
:101720002C911797213029F423E018962C931897C1
:101730000EC017962C911797233029F422E01896A3
:101740002C93189704C022E018962C93189717969C
:101750001C9201C040E0A881B9813C912C81209568
:1017600023232C93AA85BB852CEC2C9321E02E8778
:10177000411112C04C855D854115510561F0DA01BA
:101780002D913C91D9013C91DA0116962C9123239D
:1017900019F0892F01C0892F882339F081E08F87C4
:1017A000C88AD98AEA8AFB8AA8C01F86A6C0913057
:1017B00059F4A281B3811A960D90BC91A02D179671
:1017C0002C91223009F481E0882379F0A281B38141
:1017D00095968D919D910D90BC91A02D86839783B8
:1017E000A087B18782E0848388C0923009F074C0FA
:1017F000A281B38195964D915D916D917C91989761
:10180000C680D780E084F1848A019B010C191D09F0
:101810002E093F096801790118EEC11613E0D106BF
:10182000E104F10408F458C00D90BC91A02D1C9661
:10183000CD91DC911D97209799F09F81913009F40B
:1018400048C0911102C030E001C031E01F8218860B
:101850001C96CD91DC911D9791E09987188601C067
:1018600030E0CD91DC911197288114969C911497CA
:10187000922B98831A96CD91DC911B979CEC9883C0
:1018800091E01E969C931E97311111C01C96ED900D
:10189000FC901D97E114F10469F0E701288139817A
:1018A000E9012881E7019E81922319F003C081E0BC
:1018B00001C081E0882359F081E01F968C931F9727
:1018C00050964D935D936D937C93539702C01F96F2
:1018D0001C9283E0848311C0933059F4A281B381B8
:1018E0001A960D90BC91A02D17969C91913009F4F9
:1018F00081E0882311F084E08483858181110BC00D
:10190000A281B38150960D90BC91A02D17969C9109
:10191000913019F403C090E001C090E0992309F4DC
:1019200060C0A281B38195964D915D916D917C913E
:10193000989714960D90BC91A02D1C96CD91DC919A
:101940001D97209799F08F81813009F447C081114C
:1019500002C030E001C031E01F8218861C96CD9194
:10196000DC911D9781E08987188601C030E0CD9118
:10197000DC911197288114968C911497822B88837F
:101980001A96CD91DC911B978CEC888381E01E9692
:101990008C931E97311113C01C96ED90FC901D97EF
:1019A000E114F10459F0E70128813981E901288126
:1019B000E7018E81822319F090E001C090E0992325
:1019C00059F081E01F968C931F9750964D935D932D
:1019D0006D937C93539702C01F961C9281E0858380
:1019E000F8C0813059F4A281B3811E960D90BC914C
:1019F000A02D17962C91213019F403C0292F01C076
:101A0000292F222309F460C0A281B38195964D91BC
:101A10005D916D917C91989716960D90BC91A02D3B
:101A20001C96CD91DC911D97209791F08F8182308B
:101A300009F447C0811102C010E001C011E01F820B
:101A400018861C96CD91DC911D971986188601C0C9
:101A500010E0CD91DC911197388114968C911497F8
:101A60008095832388831A96CD91DC911B978CEC0B
:101A7000888381E01E968C931E97111113C01C96CB
:101A8000CD90DC901D97C114D10459F0E601E88097
:101A9000F980E7013881E6018E81832319F0292F2F
:101AA00001C0292F222359F081E01F968C931F97A4
:101AB00050964D935D936D937C93539702C01F9600
:101AC0001C9282E0858385C0823061F4A281B3815B
:101AD00050960D90BC91A02D17969C91923021F4B8
:101AE00091E003C0922F01C0922F992309F460C0A6
:101AF000A281B38195964D915D916D917C9198975E
:101B000014960D90BC91A02D1C96CD91DC911D9743
:101B1000209791F08F81823009F447C0811102C073
:101B200010E001C011E01F8218861C96CD91DC9157
:101B30001D971986188601C010E0CD91DC91119790
:101B4000388114968C9114978095832388831A96F4
:101B5000CD91DC911B978CEC888381E01E968C9351
:101B60001E97111113C01C96CD90DC901D97C114C7
:101B7000D10459F0E601E880F980E7013881E601F7
:101B80008E81832319F0922F01C0922F992359F04F
:101B900081E01F968C931F9750964D935D936D93A4
:101BA0007C93539702C01F961C9283E0858311C0DB
:101BB000833059F4A281B3811E960D90BC91A02D63
:101BC00017968C91823009F491E0992311F084E00A
:101BD0008583DF91CF911F910F91FF90EF90DF9060
:101BE000CF900895EF92FF920F931F93CF93DF93BF
:101BF000FC01808581110BC0A281B38150960D90AC
:101C0000BC91A02D17968C91813019F403C080E00F
:101C100001C080E0882309F4C9C0A281B3819596F0
:101C20004D915D916D917C91989712960D90BC911C
:101C3000A02D1C96CD91DC911D972097D9F09F8106
:101C4000923009F454C0911102C030E001C031E07B
:101C50001A8619869F81913019F493E0988708C0FD
:101C60009F81933019F492E0988702C092E09887A0
:101C70001F8201C030E0CD91DC911197288114962C
:101C80009C9114979095922398831A96CD91DC910C
:101C90001B979CEC988391E01E969C931E973111A4
:101CA00012C01C960D911C911D970115110569F02C
:101CB000E80128813981E9012881E8019E81922388
:101CC00031F090E005C0982F03C090E001C0982F3C
:101CD000992359F091E01F969C931F9750964D932E
:101CE0005D936D937C93539702C01F961C92A281C3
:101CF000B38195964D915D916D917C9198971496D5
:101D00000D90BC91A02D1C96CD91DC911D97209734
:101D100099F09F81913009F447C0911102C030E0E1
:101D200001C031E01F8218861C96CD91DC911D9771
:101D300091E09987188601C030E0CD91DC91119730
:101D4000288114969C911497922B98831A96CD9182
:101D5000DC911B979CEC988391E01E969C931E97B8
:101D6000311113C01C960D911C911D970115110581
:101D700059F0E80128813981E9012881E8019E8133
:101D8000922319F080E001C080E0882359F081E0BF
:101D90001F968C931F9750964D935D936D937C93F4
:101DA000539702C01F961C9281E08087808588230C
:101DB00009F479C08185811176C0A281B3811C9616
:101DC000CD91DC911D978F81823019F481E081875C
:101DD0006AC01296CD91DC9113978E85811163C0F4
:101DE00095964D915D916D917C919897AC85BD854F
:101DF000109761F117969C911797923009F453C090
:101E0000911102C030E001C031E01A961C921A977D
:101E100019961C92199717969C911797913029F44F
:101E200093E018969C9318970EC017969C9117975D
:101E3000933029F492E018969C93189704C092E08E
:101E400018969C93189717961C9201C030E0A881B1
:101E5000B9812C919C81909592239C93AA85BB85F6
:101E60009CEC9C9391E09E87311110C00C851D85E0
:101E70000115110571F0D8012D913C91D9012C91DA
:101E8000D80116969C91922319F003C081E001C0FD
:101E900081E0882339F081E08F87488B598B6A8BEA
:101EA0007B8B01C01F868085813059F4A281B3816C
:101EB0001E960D90BC91A02D17969C91913019F40F
:101EC00003C090E001C090E0992309F460C0A281B2
:101ED000B38195964D915D916D917C9198971696F1
:101EE0000D90BC91A02D1C96CD91DC911D97209753
:101EF00091F08F81823009F447C0811102C030E037
:101F000001C031E01F8218861C96CD91DC911D978F
:101F10001986188601C030E0CD91DC911197288197
:101F200014968C9114978095822388831A96CD916C
:101F3000DC911B978CEC888381E01E968C931E9716
:101F4000311113C01C960D911C911D97011511059F
:101F500059F0E80128813981E9012881E8018E8161
:101F6000822319F090E001C090E0992359F081E0BC
:101F70001F968C931F9750964D935D936D937C9312
:101F8000539702C01F961C9282E0808785C08230E2
:101F900061F4A281B38150960D90BC91A02D17964B
:101FA0002C91223021F421E003C0292F01C0292FD8
:101FB000222309F460C0A281B38195964D915D9171
:101FC0006D917C91989714960D90BC91A02D1C96C4
:101FD000CD91DC911D97209791F08F81823009F48B
:101FE00047C0811102C010E001C011E01F821886B5
:101FF0001C96CD91DC911D971986188601C010E0C2
:10200000CD91DC911197388114968C91149780951D
:10201000832388831A96CD91DC911B978CEC88835F
:1020200081E01E968C931E97111113C01C96ED90A3
:10203000FC901D97E114F10459F0E7010881198122
:10204000E8013881E7018E81832319F0292F01C02F
:10205000292F222359F081E01F968C931F975096C9
:102060004D935D936D937C93539702C01F961C9282
:1020700083E0808711C0833059F4A281B3811E961A
:102080000D90BC91A02D17968C91823009F421E01F
:10209000222311F084E08087DF91CF911F910F916F
:1020A000FF90EF900895EC01E9A5F0E0BC96EE0FEB
:1020B000FF1FE80FF91F80819181DC01ED91FC91F8
:1020C0000280F381E02D0995EC8DFD8D2FB7F894FA
:1020D000C080D180E280F3802FBFCDA2DEA2EFA22C
:1020E000F8A6EA85FB8520813181D9013C912681C2
:1020F000322321E009F020E03685231721F0C28643
:10210000D386E486F5864285538564857585D70137
:10211000C601841B950BA60BB70B408951896289B8
:102120007389481759076A077B0780F48785281742
:1021300069F02787222351F081E0808781858823F9
:1021400019F081E0878302C082E0878326874DA152
:102150005EA16FA178A5EC85FD85A081B1819C91E0
:102160008681982381E009F080E09785891721F026
:10217000438754876587768703851485258536854B
:10218000401B510B620B730B01891289238934891F
:10219000041715072607370750F49089891739F077
:1021A000808B882321F091E09187908597838787A2
:1021B0004DA15EA16FA178A5EE85FF85A081B181BB
:1021C0009C918681982381E009F080E096858917AB
:1021D00021F042875387648775870285138524859C
:1021E0003585401B510B620B730B008911892289C5
:1021F0003389041715072607370780F49785891751
:1022000069F08787882351F091E090879185992321
:1022100019F091E0978302C092E0978386874DA1E1
:102220005EA16FA178A5E889F989A081B1819C910F
:102230008681982381E009F080E09685891721F056
:102240004287538764877587028513852485358582
:10225000401B510B620B730B008911892289338952
:10226000041715072607370780F49785891769F043
:102270008787882351F091E090879185992319F001
:1022800091E0978302C092E0978386874DA15EA17B
:102290006FA178A5EA89FB89A081B1819C91868193
:1022A000982381E009F080E09685891721F0428724
:1022B0005387648775870285138524853585401B80
:1022C000510B620B730B0089118922893389041722
:1022D00015072607370780F49785891769F08787E0
:1022E000882351F091E090879185992319F091E02E
:1022F000978302C092E097838687CDA0DEA0EFA0EF
:10230000F8A4E881F981218D222339F1428D538D82
:10231000648D758DD701C601841B950BA60BB70B79
:10232000883C9105A105B10508F48FC0118EA485E4
:10233000B585109709F489C0868D882339F081E02E
:1023400017968C93179718961C927FC082E0179669
:102350008C93179718961C9278C024853585211583
:10236000310509F472C04685442309F46EC04785DF
:10237000442359F1D9014D915C91DA015C91D90165
:1023800016964C914523E1F0408951896289738901
:10239000D701C601841B950BA60BB70B4489558941
:1023A00066897789481759076A077B0708F04DC087
:1023B0001786F9018085882309F447C0108645C037
:1023C000C08AD18AE28AF38A40C0D90118964C911A
:1023D0001897442311F018961C924423C1F02285CB
:1023E0003385D9011C9245815681DA013C912185C2
:1023F000209523232C931686208D222331F1108ED5
:1024000021E0218FC28ED38EE48EF58E1EC0208DEA
:102410002223D9F0428D538D648D758DD701C6016D
:10242000841B950BA60BB70B81319742A105B10513
:1024300060F0A285B3851C92A581B6819C918185AF
:10244000809589238C931686108ECDA0DEA0EFA0F8
:10245000F8A4EA81FB81218D222339F1428D538D2D
:10246000648D758DD701C601841B950BA60BB70B28
:10247000883C9105A105B10508F48FC0118EA48593
:10248000B585109709F489C0868D882339F081E0DD
:1024900017968C93179719961C927FC082E0179617
:1024A0008C93179719961C9278C024853585211531
:1024B000310509F472C04685442309F46EC047858E
:1024C000442359F1D9014D915C91DA015C91D90114
:1024D00016964C914523E1F04089518962897389B0
:1024E000D701C601841B950BA60BB70B44895589F0
:1024F00066897789481759076A077B0708F04DC036
:102500001786F9018185882309F447C0118645C0E3
:10251000C08AD18AE28AF38A40C0D90119964C91C7
:102520001997442311F019961C924423C1F0228577
:102530003385D9011C9245815681DA013C91218570
:10254000209523232C931686208D222331F1108E83
:1025500021E0218FC28ED38EE48EF58E1EC0208D99
:102560002223D9F0428D538D648D758DD701C6011C
:10257000841B950BA60BB70B81319742A105B105C2
:1025800060F0A285B3851C92A581B6819C9181855E
:10259000809589238C931686108ECDA0DEA0EFA0A7
:1025A000F8A4EC81FD81218D222339F1428D538DD8
:1025B000648D758DD701C601841B950BA60BB70BD7
:1025C000883C9105A105B10508F48FC0118EA48542
:1025D000B585109709F489C0868D882339F081E08C
:1025E00017968C93179718961C927FC082E01796C7
:1025F0008C93179718961C9278C0248535852115E1
:10260000310509F472C04685442309F46EC047853C
:10261000442359F1D9014D915C91DA015C91D901C2
:1026200016964C914523E1F040895189628973895E
:10263000D701C601841B950BA60BB70B448955899E
:1026400066897789481759076A077B0708F04DC0E4
:102650001786F9018085882309F447C0108645C094
:10266000C08AD18AE28AF38A40C0D90118964C9177
:102670001897442311F018961C924423C1F0228528
:102680003385D9011C9245815681DA013C9121851F
:10269000209523232C931686208D222331F1108E32
:1026A00021E0218FC28ED38EE48EF58E1EC0208D48
:1026B0002223D9F0428D538D648D758DD701C601CB
:1026C000841B950BA60BB70B81319742A105B10571
:1026D00060F0A285B3851C92A581B6819C9181850D
:1026E000809589238C931686108ECDA0DEA0EFA056
:1026F000F8A4EE81FF81218D222339F1428D538D83
:10270000648D758DD701C601841B950BA60BB70B85
:10271000883C9105A105B10508F48FC0118EA485F0
:10272000B585109709F489C0868D882339F081E03A
:1027300017968C93179718961C927FC082E0179675
:102740008C93179718961C9278C02485358521158F
:10275000310509F472C04685442309F46EC04785EB
:10276000442359F1D9014D915C91DA015C91D90171
:1027700016964C914523E1F040895189628973890D
:10278000D701C601841B950BA60BB70B448955894D
:1027900066897789481759076A077B0708F04DC093
:1027A0001786F9018085882309F447C0108645C043
:1027B000C08AD18AE28AF38A40C0D90118964C9126
:1027C0001897442311F018961C924423C1F02285D7
:1027D0003385D9011C9245815681DA013C912185CE
:1027E000209523232C931686208D222331F1108EE1
:1027F00021E0218FC28ED38EE48EF58E1EC0208DF7
:102800002223D9F0428D538D648D758DD701C60179
:10281000841B950BA60BB70B81319742A105B1051F
:1028200060F0A285B3851C92A581B6819C918185BB
:10283000809589238C931686108ECDA0DEA0EFA004
:10284000F8A4E885F985218D222339F1428D538D35
:10285000648D758DD701C601841B950BA60BB70B34
:10286000883C9105A105B10508F48FC0118EA4859F
:10287000B585109709F489C0868D882339F081E0E9
:1028800017968C93179718961C927FC082E0179624
:102890008C93179718961C9278C02485358521153E
:1028A000310509F472C04685442309F46EC047859A
:1028B000442359F1D9014D915C91DA015C91D90120
:1028C00016964C914523E1F04089518962897389BC
:1028D000D701C601841B950BA60BB70B44895589FC
:1028E00066897789481759076A077B0708F04DC042
:1028F0001786F9018085882309F447C0108645C0F2
:10290000C08AD18AE28AF38A40C0D90118964C91D4
:102910001897442311F018961C924423C1F0228585
:102920003385D9011C9245815681DA013C9121857C
:10293000209523232C931686208D222331F1108E8F
:1029400021E0218FC28ED38EE48EF58E1EC0208DA5
:102950002223D9F0428D538D648D758DD701C60128
:10296000841B950BA60BB70B81319742A105B105CE
:1029700060F0A285B3851C92A581B6819C9181856A
:10298000809589238C931686108E9F8D4DA15EA114
:102990006FA178A5EE89FF898585882339F1992370
:1029A000F1F085819681A781B0858A019B01081B82
:1029B000190B2A0B3B0B81859285A385B4850817DB
:1029C00019072A073B07C8F0A081B1819C91848137
:1029D00089278C9345835683678370870EC0A081B7
:1029E000B1819C918481892B8C9307C0A081B18196
:1029F0009C918481809589238C9388A1CDA0DEA0B1
:102A0000EFA0F8A4088D198D813031F1C701B6010E
:102A100028EE33E040E050E00E94E51A643873404D
:102A200081059105C8F020E0273008F0EFC0822F23
:102A300090E0FC01EE0FFF1FE00FF11F0190F0810D
:102A4000E02D3081D801A80FB91F5C968C9180953C
:102A5000832380832F5FE8CFF80184A995A9A6A9D5
:102A6000B7A9B701A601481B590B6A0B7B0B80ADB8
:102A700091ADA2ADB3AD481759076A077B0708F4BB
:102A8000C5C020E02730A8F4822F90E0FC01EE0FB3
:102A9000FF1FE00FF11F0190F081E02D3081D80180
:102AA000A80FB91F5C968C918095832380832F5F3C
:102AB000E9CFD80199968C919997882309F44AC057
:102AC00098968C9198979DEC899F812D11248695DD
:102AD000869586959396ED91FC9194972081979693
:102AE0009C91922B90838A3008F087C0F801E80F00
:102AF000F11D32A520E0273008F07FC0E22FF0E082
:102B0000832F90E0022E02C0959587950A94E2F7F4
:102B100080FF0FC0DF01AA0FBB1FA00FB11F0D90D8
:102B2000BC91A02D9C91E00FF11F848D892B8C937B
:102B30000FC0DF01AA0FBB1FA00FB11F0D90BC91EA
:102B4000A02D9C91E00FF11F848D809589238C939B
:102B50002F5FD1CFF80120A58DEC289F812D112466
:102B6000869586958695880F982F990F990F890FCE
:102B7000281B822F03A0F4A1E02D2081D801979675
:102B80009C919095922390838A30B8F5F801E80FD4
:102B9000F11D62A580E0873080F5282F30E0462FB8
:102BA00050E0082E02C0559547950A94E2F740FF81
:102BB00011C0F901EE0FFF1FE00FF11F0190F0812E
:102BC000E02D4081D801A20FB31F5C969C91942BFD
:102BD000908311C0F901EE0FFF1FE00FF11F01906C
:102BE000F081E02D4081D801A20FB31F5C969C912B
:102BF0009095942390838F5FCECFF80191A581E0CB
:102C0000892781A7C4AAD5AAE6AAF7AA88A18823FA
:102C100099F08DA19EA1AFA1B8A549A15AA16BA120
:102C20007CA1841B950BA60BB70B80339547A105A0
:102C3000B10510F081E08F8FE9A5F0E0BC96EE0FB2
:102C4000FF1FEC0FFD1FE080F180D701ED91FC919B
:102C50000190F081E02DC7010995182F8F3F29F0D1
:102C600089A5181721F081E003C080E001C080E051
:102C70008823C9F0D701ED91FC910680F781E02D02
:102C8000C701099519A7E12FF0E0BC96EE0FFF1FD1
:102C9000EC0FFD1F80819181DC01ED91FC910280A0
:102CA000F381E02D0995E9A5F0E0BC96EE0FFF1F3A
:102CB000EC0FFD1F80819181DC01ED91FC9104807E
:102CC000F581E02D099500CA1F920F920FB60F9261
:102CD00011242F933F934F935F938F939F93EF9381
:102CE000FF93E0918402F0918502309769F1509151
:102CF00006015F7380E090E0863091052CF5252F6A
:102D000030E0082E02C0359527950A94E2F720FDA1
:102D100019C04081242F30E0082E02C03595279538
:102D20000A94E2F720FF0EC021812F5F218321E06A
:102D300030E0082E02C0220F331F0A94E2F72095DC
:102D4000422340830196D8CFFF91EF919F918F91BD
:102D50005F914F913F912F910F900FBE0F901F9059
:102D600018951F920F920FB60F9211248F939F9375
:102D7000AF93BF93EF93FF93E0918202F0918302B0
:102D8000309759F080819181A281B3810196A11D74
:102D9000B11D80839183A283B383FF91EF91BF9193
:102DA000AF919F918F910F900FBE0F901F9018952C
:102DB000CF93DF93CDB7DEB7CB5ED1400FB6F8949B
:102DC000DEBF0FBECDBF04E110E020E030E0098B94
:102DD0001A8B2B8B3C8B66E071E07A83698348E029
:102DE00051E05C834B8387E091E09E838D83689400
:102DF000992496F89F82188619861A861B861C8647
:102E00001D861E861F86188A0EA31FA328A739A712
:102E10007E8B6D8B588F4F8B9A8F898F6894AA24E5
:102E2000A7F8AB8E1C8E772473947D8E1E8E1F8E1A
:102E300018A219A21AA21BA21CA21DA20AAF1BAFA4
:102E40002CAF3DAF89E290E09BA78AA76BE270E0D0
:102E50007DA76CA74AE250E05FA74EA778AA19AAFF
:102E60001AAA1BAA1CAA1DAA1EAA1FAA18AE19AE2E
:102E7000DE01DE9650960D931D932D933C93539750
:102E80009FAF8EAF22967FAF6EAF229724965FAF33
:102E90004EAF24976894662461F825966FAE259707
:102EA00026961FAE269727961FAE279728961FAE09
:102EB00028971A961D921D921D921C921D972D9671
:102EC0001FAE2D972E961FAE2E97FE01EE5AFF4F86
:102ED000008B118B228B338B91838083738362836E
:102EE000558344836894882482F8868217821086EA
:102EF000118612861386148615861686178602E3B7
:102F000010E020E030E0E5960CAF1DAF2EAF3FAFF4
:102F1000E597A8969FAF8EAFA897AA967FAF6EAFA2
:102F2000AA97AC965FAF4EAFAC976894BB24B3F84A
:102F3000AD96BFAEAD97E1961CAE1DAE1EAE1FAEF8
:102F4000E197E6961FAEE697E7961FAEE797E896FD
:102F50001FAEE8970F2EF4E6CF2ED12CE12CF12CEA
:102F6000F02DC457DF4FC882D982EA82FB82CC5849
:102F7000D04025E230E0EA963FAF2EAFEA9784E2F8
:102F800090E0EC969FAF8EAFEC97ED967FAEED970D
:102F9000EF963FAF2EAFEF97C158DF4F99838883ED
:102FA000CF57D0406894772474F8CF57DF4F78829A
:102FB000C158D04003EB10E0CE57DF4F1983088390
:102FC000C258D0408E010F5F1F4FCC57DF4F19837F
:102FD0000883C458D040CA57DF4F1882C658D04023
:102FE000C957DF4F1882C758D040C057DF4F1882EB
:102FF000C059D040CF56DF4F1882C159D040C55577
:10300000DF4FC882D982EA82FB82CB5AD040C956B0
:10301000DF4F39832883C759D040C756DF4F998384
:103020008883C959D040C556DF4F6882CB59D040FC
:10303000C456DF4F39832883CC59D040C256DF4F66
:1030400099838883CE59D04010E2C056DF4F188351
:10305000C05AD04008E810E0CF55DF4F19830883ED
:10306000C15AD0408E010B5E1F4FCD55DF4F1983E3
:103070000883C35AD040CB55DF4F1882C55AD04081
:10308000CA55DF4F1882C65AD040C155DF4F18824B
:10309000CF5AD040C055DF4F1882C05BD040C653D6
:1030A000DF4FC882D982EA82FB82CA5CD040CA5410
:1030B000DF4F39832883C65BD040C854DF4F9983E4
:1030C0008883C85BD040C654DF4F8882CA5BD0403B
:1030D000C554DF4F39832883CB5BD040C354DF4FC7
:1030E00099838883CD5BD040C154DF4F9882CF5BFA
:1030F000D0400AE810E0C054DF4F19830883C05C59
:10310000D0408E01065D1F4FCE53DF4F19830883D9
:10311000C25CD040CC53DF4F1882C45CD040CB534C
:10312000DF4F1882C55CD040C253DF4F1882CE5C9F
:10313000D040C153DF4F1882CF5CD040C751DF4F22
:10314000C882D982EA82FB82C95ED040CB52DF4F6F
:1031500039832883C55DD040C952DF4F9983888366
:10316000C75DD040C752DF4FB882C95DD040C6525C
:10317000DF4F39832883CA5DD040C452DF4F998323
:103180008883CC5DD040C252DF4FA882CE5DD04054
:1031900087E490E0C152DF4F99838883CF5DD040B0
:1031A000CF51DF4FB983A883C15ED040CD51DF4FEF
:1031B0001882C35ED040CC51DF4F1882C45ED0402D
:1031C000C351DF4F1882CD5ED040C251DF4F18820D
:1031D000CE5ED040C85FDE4FC882D982EA82FB82D1
:1031E000C850D140CC50DF4F79836883C45FD04052
:1031F000CA50DF4F59834883C65FD040C850DF4F65
:103200007882C85FD0408BE091E0C750DF4F998350
:103210008883C95FD0408AE091E0C550DF4F998331
:103220008883CB5FD040C350DF4FB882CD5FD040A2
:1032300088E291E0C250DF4F99838883CE5FD0400F
:10324000C050DF4FF983E883C050D140CE5FDE4FDE
:103250001882C250D140CD5FDE4F1882C350D1409A
:10326000C45FDE4F1882CC50D140C35FDE4F18825E
:10327000CD50D1408EE0E0E0F2E0AB52BF4F019084
:103280000D928A95E1F78EE0EEE0F2E0DE01AF5DAF
:10329000BE4F01900D928A95E1F787E0ECE1F2E0F4
:1032A000DE01A15DBE4F01900D928A95E1F78AE0A3
:1032B000E3E2F2E0A6E3B1E0AC0FBD1F9A96019005
:1032C0000D928A95E1F785E090E0A0E0B0E0C25968
:1032D000DE4F88839983AA83BB83CE56D14040E0DA
:1032E0004730B0F5842F90E09C01220F331FE3E1BB
:1032F000F1E0EC0FFD1FE20FF31F60817181E6E347
:10330000F1E0EC0FFD1FE20FF31F71836083E1E238
:10331000F1E0EC0FFD1FE20FF31F20813181FC0172
:103320003796EE0FFF1F66E371E06C0F7D1FE60F0F
:10333000F71F31832083EFE2F1E0EC0FFD1FE80F70
:10334000F91F2081FB01E80FF91F248F4F5FC8CFC1
:10335000CE018A5C9E4F2BE031E0DC0194963C93D9
:103360002E9393972AE031E096963C932E9395976F
:1033700020E897962C93979798961C9298979996F1
:103380001C925E01BEE8AB1ABEEFBB0A4BE250E0F6
:10339000F501518340834AE250E053834283248302
:1033A000158216821782108644E650E060E070E0D5
:1033B000418752876387748715869E0120583E4F48
:1033C0004FE3D9014C9311961C92AE014E575E4FBC
:1033D000FA011082118212821382309385022093A7
:1033E000840250938302409382023496168E178E85
:1033F00010A211A212A213A214A215A216A217A221
:1034000010A611A6F5A7E4A761E372E073A762A76F
:10341000F1ABE0AB6DE372E077A766A7F5ABE4AB89
:1034200069E472E073AB62ABF1AFE0AF65E572E007
:1034300077AB66AB12AE13AE14AE15AE16AE17AECA
:103440007E016AE3E61A6EEFF60AC853DE4FF9838F
:10345000E883C85CD14061E672E0D7016D937C934C
:10346000C653DE4F1882CA5CD1408E0105531E4FF1
:10347000C353DE4FF983E883CD5CD1406DE672E043
:10348000D8016D937C93C153DE4F188219821A8242
:103490001B82CF5CD140CD52DE4F1882C35DD1403C
:1034A000CC52DE4F1882C45DD140BE016B527E4FBC
:1034B000C952DE4FF983E883C75DD1400F2EF9E78B
:1034C000CF2EF2E0DF2EF02DDB01CD92DC92C75241
:1034D000DE4F1882C95DD140C652DE4F1882198274
:1034E0001A821B82CA5DD1406F01BAE2CB0ED11C99
:1034F000C252DE4FD982C882CE5DD1406F01AEE2AA
:10350000CA0ED11CC052DE4FD982C882C05ED140E3
:103510006F01B2E3CB0ED11CCE51DE4FD982C882EF
:10352000C25ED1406F01A6E3CA0ED11CCC51DE4F62
:10353000D982C882C45ED140CA51DE4FF982E88286
:10354000C65ED140C851DE4F19830883C85ED140A2
:10355000C651DE4F79836883CA5ED1406D55714094
:1035600071836083615E7F4F73836283615E7F4F8F
:1035700075836483615E7F4F77836683615E7F4F6F
:1035800071876087635F7109738762876C5E7F4FA5
:10359000758764876B5E7F4F778766876C5E7F4F2A
:1035A000718B608B6C5E7F4F738B628B6C5E7F4F19
:1035B000758B648BB78AA68A918F808F338F228F09
:1035C000558F448FCF010E945310A1E21A2EAA1BDF
:1035D000BB1BFD010DC0AA1FBB1FEE1FFF1FA217C3
:1035E000B307E407F50720F0A21BB30BE40BF50BC0
:1035F000661F771F881F991F1A9469F76095709549
:10360000809590959B01AC01BD01CF010895F89480
:02361000FFCFEA
:103612000B010B010B012B000B010B010B010A012A
:103622000A010A012A000A010A010A0101020440F0
:103632001020403F065B4F666D7D077F6F000000E4
:10364200009300CA0191009200000000009500134F
:10365200064207920000000000DE00C4009100EF65
:1036620000000000002401E004E90A9200000000CA
:1036720000310193055308420100000000690179FD
:1036820004F20D8D0100000000B7011B04080A922C
:02369200000036
:00000001FF
